:020000040800F2
:10000000000002203DD1000871AF000879AF000860
:100010008DAF0008A1AF0008B5AF000800000000D8
:10002000000000000000000000000000C9AF000850
:10003000D7AF000800000000E5AF0008F3AF0008EC
:100040008DD100088DD100088DD100088DD1000818
:100050008DD100088DD100088DD100088DD1000808
:100060008DD100088DD100088DD100088DD10008F8
:100070008DD100088DD100088DD100088DD10008E8
:100080008DD100088DD100088DD100088DD10008D8
:100090008DD100088DD100088DD100088DD10008C8
:1000A00001B000088DD100088DD100088DD1000865
:1000B0008DD100088DD100081DB000088DD1000839
:1000C0008DD100088DD100088DD100088DD1000898
:1000D0008DD100088DD1000841B000088DD10008F5
:1000E0008DD100088DD100088DD100088DD1000878
:1000F0008DD100088DD100088DD100088DD1000868
:100100008DD100088DD1000855B000088DD10008B0
:100110008DD100088DD100088DD100088DD1000847
:100120008DD100088DD100088DD100088DD1000837
:100130008DD1000800000000000000008DD10008F3
:100140008DD100088DD100088DD100088DD1000817
:100150008DD100088DD100088DD1000871B0000844
:100160008DD100088DD100088DD100088DD10008F7
:100170008DD100088DD100088DD10008000000004D
:10018000000000008DD10008000000000000000009
:100190008DD1000800000000000000008DD1000893
:1001A0000000000000000000000000008DD10008E9
:1001B0008DD100088DD100088DD100088DD10008A7
:0401C0008DD10008D5
:1080000010B5054C237833B9044B13B10448AFF3D2
:1080100000800123237010BD000400200000000038
:10802000F832010808B5034B1BB103490348AFF30D
:10803000008008BD0000000004040020F8320108A0
:1080400001F0FF01102A2BDB10F0070F08D010F809
:10805000013B013A8B422DD010F0070F42B3F6D10D
:10806000F0B441EA012141EA014122F007047FF026
:1080700000070023F0E80256083C85EA010586EA7D
:10808000010685FA47F5A3FA87F586FA47F6A5FAB9
:1080900087F68EB9EED1F0BC01F0FF0102F00702C5
:1080A00032B110F8013B013A83EA010313B1F8D170
:1080B0000020704701387047002D06BF3546033851
:1080C000073815F0010F07D1013015F4807F02BF8A
:1080D000013015F4C03F0130F0BC0138704700BFDB
:1080E000034613F8012B002AFBD1181A01387047F8
:1080F00081F0004102E000BF83F0004330B54FEA59
:1081000041044FEA430594EA050F08BF90EA020FC5
:108110001FBF54EA000C55EA020C7FEA645C7FEA58
:10812000655C00F0E2804FEA5454D4EB5555B8BF7B
:108130006D420CDD2C4480EA020281EA030382EAEC
:10814000000083EA010180EA020281EA0303362D7E
:1081500088BF30BD11F0004F4FEA01314FF4801C51
:108160004CEA113102D0404261EB410113F0004F63
:108170004FEA03334CEA133302D0524263EB43031A
:1081800094EA050F00F0A780A4F10104D5F1200EB8
:108190000DDB02FA0EFC22FA05F2801841F1000113
:1081A00003FA0EF2801843FA05F359410EE0A5F1E7
:1081B00020050EF1200E012A03FA0EFC28BF4CF018
:1081C000020C43FA05F3C01851EBE37101F00045CE
:1081D00007D54FF0000EDCF1000C7EEB00006EEBDB
:1081E0000101B1F5801F1BD3B1F5001F0CD3490865
:1081F0005FEA30004FEA3C0C04F101044FEA4452BC
:1082000012F5800F80F09A80BCF1004F08BF5FEA42
:10821000500C50F1000041EB045141EA050130BD22
:108220005FEA4C0C404141EB0101013C28BFB1F534
:10823000801FE9D291F0000F04BF01460020B1FA7F
:1082400081F308BF2033A3F10B03B3F120020CDA52
:108250000C3208DD02F1140CC2F10C0201FA0CF030
:1082600021FA02F10CE002F11402D8BFC2F1200C95
:1082700001FA02F120FA0CFCDCBF41EA0C0190404B
:10828000E41AA2BF01EB0451294330BD6FEA040494
:108290001F3C1CDA0C340EDC04F11404C4F120027F
:1082A00020FA04F001FA02F340EA030021FA04F391
:1082B00045EA030130BDC4F10C04C4F1200220FAE8
:1082C00002F001FA04F340EA0300294630BD21FA26
:1082D00004F0294630BD94F0000F83F4801306BFEC
:1082E00081F480110134013D4EE77FEA645C18BFE0
:1082F0007FEA655C29D094EA050F08BF90EA020F77
:1083000005D054EA000C04BF1946104630BD91EA6E
:10831000030F1EBF0021002030BD5FEA545C05D171
:108320004000494128BF41F0004130BD14F58004B0
:108330003CBF01F5801130BD01F0004545F0FE4124
:1083400041F470014FF0000030BD7FEA645C1ABF59
:10835000194610467FEA655C1CBF0B46024650EA90
:10836000013406BF52EA033591EA030F41F40021BC
:1083700030BD00BF90F0000F04BF0021704730B542
:108380004FF4806404F132044FF000054FF0000117
:1083900050E700BF90F0000F04BF0021704730B5D8
:1083A0004FF4806404F1320410F0004548BF4042AD
:1083B0004FF000013EE700BF42004FEAE2014FEA02
:1083C00031014FEA02701FBF12F07F4393F07F4FDD
:1083D00081F06051704732F07F4208BF704793F0E0
:1083E0007F4F04BF41F40021704730B54FF46074F3
:1083F00001F0004521F000411CE700BF50EA0102F6
:1084000008BF704730B54FF000050AE050EA01029E
:1084100008BF704730B511F0004502D5404261EB0E
:1084200041014FF4806404F132045FEA915C3FF44F
:10843000D8AE4FF003025FEADC0C18BF03325FEAEC
:10844000DC0C18BF033202EBDC02C2F1200300FA9D
:1084500003FC20FA02F001FA03FE40EA0E0021FAC2
:1084600002F11444BDE600BF70B54FF0FF0C4CF4B0
:10847000E06C1CEA11541DBF1CEA135594EA0C0F62
:1084800095EA0C0F00F0DEF82C4481EA030621EA9D
:108490004C5123EA4C5350EA013518BF52EA0335D8
:1084A00041F4801143F4801338D0A0FB02CE4FF08A
:1084B0000005E1FB02E506F00042E0FB03E54FF0BA
:1084C0000006E1FB03569CF0000F18BF4EF0010EB2
:1084D000A4F1FF04B6F5007F64F5407404D25FEAAE
:1084E0004E0E6D4146EB060642EAC62141EA555161
:1084F0004FEAC52040EA5E504FEACE2EB4F1FD0CA3
:1085000088BFBCF5E06F1ED8BEF1004F08BF5FEA20
:10851000500E50F1000041EB045170BD06F00046D2
:1085200046EA010140EA020081EA0301B4EB5C047F
:10853000C2BFD4EB0C0541EA045170BD41F4801177
:108540004FF0000E013C00F3AB8014F1360FDEBF9C
:10855000002001F0004170BDC4F10004203C35DA78
:108560000C341BDC04F11404C4F1200500FA05F3FB
:1085700020FA04F001FA05F240EA020001F000429C
:1085800021F0004110EBD37021FA04F642EB060112
:108590005EEA430E08BF20EAD37070BDC4F10C043C
:1085A000C4F1200500FA04F320FA05F001FA04F200
:1085B00040EA020001F0004110EBD37041F10001EC
:1085C0005EEA430E08BF20EAD37070BDC4F12005F7
:1085D00000FA05F24EEA020E20FA04F301FA05F25F
:1085E00043EA020321FA04F001F0004121FA04F207
:1085F00020EA020000EBD3705EEA430E08BF20EAD7
:10860000D37070BD94F0000F0FD101F00046400010
:1086100041EB010111F4801F08BF013CF7D041EA92
:10862000060195F0000F18BF704703F00046520096
:1086300043EB030313F4801F08BF013DF7D043EA67
:108640000603704794EA0C0F0CEA135518BF95EA1D
:108650000C0F0CD050EA410618BF52EA4306D1D1A4
:1086600081EA030101F000414FF0000070BD50EAC3
:10867000410606BF1046194652EA430619D094EA4D
:108680000C0F02D150EA013613D195EA0C0F05D137
:1086900052EA03361CBF104619460AD181EA03018B
:1086A00001F0004141F0FE4141F470014FF0000043
:1086B00070BD41F0FE4141F4780170BD70B54FF0DE
:1086C000FF0C4CF4E06C1CEA11541DBF1CEA13555E
:1086D00094EA0C0F95EA0C0F00F0A7F8A4EB050440
:1086E00081EA030E52EA03354FEA013100F0888037
:1086F0004FEA03334FF0805545EA131343EA126300
:108700004FEA022245EA111545EA10654FEA0026B4
:108710000EF000419D4208BF964244F1FD0404F56D
:10872000407402D25B084FEA3202B61A65EB0305C9
:108730005B084FEA32024FF480104FF4002CB6EB86
:10874000020E75EB030E22BFB61A754640EA0C0006
:108750005B084FEA3202B6EB020E75EB030E22BF46
:10876000B61A754640EA5C005B084FEA3202B6EB87
:10877000020E75EB030E22BFB61A754640EA9C0046
:108780005B084FEA3202B6EB020E75EB030E22BF16
:10879000B61A754640EADC0055EA060E18D04FEAD4
:1087A000051545EA16754FEA06164FEAC30343EA74
:1087B00052734FEAC2025FEA1C1CC0D111F4801F41
:1087C0000BD141EA00014FF000004FF0004CB6E73A
:1087D00011F4801F04BF01430020B4F1FD0C88BFD9
:1087E000BCF5E06F3FF6AFAEB5EB030C04BFB6EBE4
:1087F000020C5FEA500C50F1000041EB045170BDD7
:108800000EF0004E4EEA113114EB5C04C2BFD4EB03
:108810000C0541EA045170BD41F480114FF0000E87
:10882000013C90E645EA060E8DE60CEA135594EA03
:108830000C0F08BF95EA0C0F3FF43BAF94EA0C0F06
:108840000AD150EA01347FF434AF95EA0C0F7FF47B
:1088500025AF104619462CE795EA0C0F06D152EACF
:1088600003353FF4FDAE1046194622E750EA4106B3
:1088700018BF52EA43067FF4C5AE50EA41047FF4C4
:108880000DAF52EA43057FF4EBAE12E74FF0FF3C29
:1088900006E000BF4FF0010C02E000BF4FF0010CFA
:1088A0004DF804CD4FEA410C7FEA6C5C4FEA430C73
:1088B00018BF7FEA6C5C1BD001B050EA410C0CBFC2
:1088C00052EA430C91EA030F02BF90EA020F002024
:1088D000704710F1000F91EA030F58BF994208BF8B
:1088E00090422CBFD8176FEAE37040F00100704748
:1088F0004FEA410C7FEA6C5C02D150EA013C07D19F
:108900004FEA430C7FEA6C5CD6D152EA033CD3D0E9
:108910005DF8040B704700BF8446104662468C46E3
:108920001946634600E000BF01B5FFF7B7FF002816
:1089300048BF10F1000F01BD4DF808EDFFF7F4FF3F
:108940000CBF012000205DF808FB00BF4DF808EDCA
:10895000FFF7EAFF34BF012000205DF808FB00BFED
:108960004DF808EDFFF7E0FF94BF012000205DF80F
:1089700008FB00BF4DF808EDFFF7CEFF94BF0120C4
:1089800000205DF808FB00BF4DF808EDFFF7C4FFBD
:1089900034BF012000205DF808FB00BF4FEA410C06
:1089A0007FEA6C5C02D150EA013C0AD14FEA430CE9
:1089B0007FEA6C5C02D152EA033C02D14FF0000026
:1089C00070474FF0010070474FEA410212F5001264
:1089D00015D211D56FF47873B3EB625212D94FEA06
:1089E000C12343F0004343EA505311F0004F23FAF0
:1089F00002F018BF404270474FF00000704750EA45
:108A0000013005D111F0004008BF6FF00040704701
:108A10004FF00000704700BF4A0011D212F500125B
:108A200011D20DD56FF47873B3EB62520ED44FEAC6
:108A3000C12343F0004343EA505323FA02F0704746
:108A40004FF00000704750EA013002D14FF0FF3084
:108A500070474FF00000704753B94AB9002908BF6A
:108A600000281CBF4FF0FF314FF0FF3000F088B9F5
:108A7000ADF1080C6DE904CE00F024F8DDF804E057
:108A8000DDE9022304B07047D0B50C4B0022064646
:108A90000F46FFF7E9FCFFF7BFFF0446FFF76AFC4C
:108AA000074B0022FFF7E0FC02460B4630463946F2
:108AB000FFF722FBFFF7B0FF2146D0BD0000F03DDD
:108AC0000000F0412DE9F047089D0C46002B4ED1E7
:108AD00094468C458646B2FA82F262D94AB1C2F116
:108AE0002003914020FA03F30CFA02FC194300FA28
:108AF00002FE4FEA1C471FFA8CF6B1FBF7F44FEA6F
:108B00001E4307FB141143EA014304FB06F199429B
:108B10000AD91CEB030304F1FF3080F01281994263
:108B200040F20F81023C6344591A1FFA8EF3B1FBE5
:108B3000F7F007FB101143EA014300FB06F69E42E3
:108B40000AD91CEB030300F1FF3180F0FC809E4248
:108B500040F2F980634402389B1B40EA0440002144
:108B60001DB1D3400022C5E90032BDE8F0878B4239
:108B700005D90DB1C5E9000100210846F5E7B3FAB2
:108B800083F1002946D1A34202D39042C0F0F08085
:108B9000861A64EB03030120002DE6D0C5E90063CB
:108BA000E3E7002A40F09080A1EB0C044FEA1C4858
:108BB0001FFA8CF70121B4FBF8F64FEA1E4308FBBD
:108BC000164443EA044307FB06F0984208D91CEB1D
:108BD000030306F1FF3402D2984200F2CD8026460C
:108BE0001C1A1FFA8EF3B4FBF8F008FB104443EA9A
:108BF000044300FB07F79F4208D91CEB030300F175
:108C0000FF3402D29F4200F2B0802046DB1B40EAD4
:108C10000640A5E7C1F120068B4022FA06F71F4364
:108C200020FA06FC04FA01F343EA0C03F44000FACC
:108C300001F8380C4FEA1349B4FBF0FE1FFA87FC29
:108C400000FB1E4449EA04440EFB0CF9A14502FA5C
:108C500001F20AD93C190EF1FF3A80F08480A14557
:108C600040F28180AEF1020E3C44A4EB09041FFAED
:108C700083F9B4FBF0F300FB134449EA044403FB1B
:108C80000CFCA44507D93C1903F1FF3067D2A44579
:108C900065D9023B3C4443EA0E40A0FB0293A4EB9F
:108CA0000C049C42CE469C4651D34ED055B1B8EBF5
:108CB0000E0364EB0C0404FA06F6CB401E43CC40D2
:108CC000C5E90064002150E7C2F1200320FA03F156
:108CD0000CFA02FC24FA03F394400C434FEA1C48BC
:108CE00000FA02FE1FFA8CF7B3FBF8F008FB103114
:108CF000230C43EA014300FB07F1994208D91CEB1E
:108D0000030300F1FF362CD299422AD9023863447A
:108D10005B1AA4B2B3FBF8F108FB113344EA034435
:108D200001FB07F3A34208D91CEB040401F1FF3651
:108D300013D2A34211D902396444E41A41EA004132
:108D400039E70446F0E6084606E7C845AED2B9EB77
:108D5000020E63EB070C0138A8E73146EDE7034646
:108D600099E73046D4E7D6467FE7634402384DE7BB
:108D70000646234608460FE7023E634430E700BF3D
:108D8000704700BF80B582B000AF0346FB800B4642
:108D9000BB801346FB70FB78012B06D1FB88BA8899
:108DA0001946064802F050FB04E0FB8819460448C7
:108DB00002F04AFB00BF0837BD4680BD10330108F2
:108DC0002433010880B500AF074803F003FD0749CD
:108DD000074803F00FFD074803F022FD0649074846
:108DE00003F02EFD00BF80BD758E00086190000865
:108DF000FD8E0008919100086D930008DD91000838
:108E000080B400AF044B1B685B68DBB21846BD46FC
:108E10005DF8047B704700BF2406002080B582B057
:108E200000AF78600B467B807B880A337A8879684C
:108E3000034806F0B9FB034618460837BD4680BD17
:108E40002406002080B500AF01220421024805F06D
:108E50006DF800BF80BD00BF000C024080B500AFC0
:108E600000220421024805F061F800BF80BD00BF68
:108E7000000C024080B584B000AF03463960FB802F
:108E80000123FB73FB88A3F51C53113B032B23D851
:108E900001A252F823F000BFA98E0008B58E000889
:108EA000C18E0008CD8E0008134B93F84E223B680C
:108EB0001A7014E0104B93F86A223B681A700EE0A7
:108EC0000D4B93F886223B681A7008E00A4B93F822
:108ED000A2223B681A7002E00023FB7300BF3B68CC
:108EE0001B781946FA7BFB881846FFF74BFFFB7B84
:108EF00018461037BD4680BD6C06002080B584B092
:108F000000AF03460A46FB711346BB710123FB7396
:108F1000FB79013B1E2B00F28D8001A252F823F059
:108F20009D8F0008B78F0008D18F0008EB8F0008D5
:108F300035900008359000083590000835900008FD
:108F400035900008359000083590000835900008ED
:108F500035900008359000083590000835900008DD
:108F600035900008359000083590000835900008CD
:108F700005900008359000083590000835900008ED
:108F800035900008359000083590000835900008AD
:108F900035900008359000080D900008BB79002B33
:108FA00014BF01230023DBB21A464FF48071294815
:108FB00004F0BCFF41E0BB79002B14BF0123002368
:108FC000DBB21A464FF40071224804F0AFFF34E0E0
:108FD000BB79002B14BF01230023DBB21A464FF4E8
:108FE00080611C4804F0A2FF27E0BB79002B14BF6E
:108FF00001230023DBB21A464FF40061154804F048
:1090000095FF1AE0144B0122DA7216E0BB79002BAF
:1090100014BF01230023DBB21A46104B1A70BB7930
:10902000002B14BF01230023DBB21946092000F0F6
:1090300089FA02E00023FB7300BFFB799BB2BA7987
:1090400091B2FA7B1846FFF79DFEFB7B184610375E
:10905000BD4680BD000002406C0600205C09002077
:1090600080B584B000AF03463960FB710123FB7308
:10907000FB79013B1E2B73D801A252F823F000BFED
:10908000FD90000811910008259100083991000811
:1090900061910008619100086191000861910008E8
:1090A00061910008619100086191000861910008D8
:1090B00061910008619100086191000861910008C8
:1090C00061910008619100086191000861910008B8
:1090D0004D910008619100086191000861910008BC
:1090E0006191000861910008619100086191000898
:1090F0006191000861910008579100084FF4807158
:10910000204804F0FBFE03461A463B681A702AE02A
:109110004FF400711B4804F0F1FE03461A463B6809
:109120001A7020E04FF48061164804F0E7FE034611
:109130001A463B681A7016E04FF40061114804F0BB
:10914000DDFE03461A463B681A700CE00E4BDA7AD5
:109150003B681A7007E00D4B1A783B681A7002E002
:109160000023FB7300BFFB7998B23B681B7819465C
:10917000FB7B1A46FFF706FEFB7B18461037BD4601
:1091800080BD00BF000002406C0600205C0900208A
:1091900080B584B000AF03463960FB800123FB73C8
:1091A000FB8847F23152934206D10B4B93F824329D
:1091B0001A463B681A8002E00023FB7300BF3B683D
:1091C0001988FA7BFB881846FFF7DCFDFB7B184605
:1091D0001037BD4680BD00BF6C06002080B584B04E
:1091E00000AF03460A46FB801346BB800123FB7396
:1091F000FB88A3F51C43413B172B00F2A08001A282
:1092000052F823F06592000883920008A1920008AA
:10921000BF9200083F9300083F9300083F93000867
:109220003F9300083F9300083F9300083F930008D6
:109230003F9300083F9300083F9300083F930008C6
:109240003F9300083F9300083F9300083F930008B6
:109250003F930008DD920008E592000801930008A2
:1092600023930008BB88404AC2F84032BB881946A5
:10927000012000F067F90346002B63D00023FB7345
:1092800060E0BB88384AC2F85C32BB8819460220CD
:1092900000F058F90346002B56D00023FB7353E02F
:1092A000BB88314AC2F87832BB881946032000F0E7
:1092B00049F90346002B49D00023FB7346E0BB88E5
:1092C000294AC2F89432BB881946042000F03AF9C2
:1092D0000346002B3CD00023FB7339E0BB88224AB5
:1092E000536036E0BB88072B02D0BB88082B04D123
:1092F000BB88DAB21C4B1A722BE00023FB7328E008
:10930000BB88002B05D0BB88012B02D0BB88022B69
:1093100004D1BB88DAB2144B5A721AE00023FB73F3
:1093200017E0BB88012B02D0BB88022B04D1BB887D
:10933000DAB20D4B9A720CE00023FB7309E00023B4
:10934000FB7306E000BF04E000BF02E000BF00E0E6
:1093500000BFFA7BB988FB881846FFF713FDFB7B3B
:1093600018461037BD4680BD6C06002080B584B01D
:1093700000AF03463960FB800123FB73FB88A3F534
:109380001C43413B172B67D801A252F823F000BFC2
:10939000F1930008FF9300080D9400081B94000847
:1093A00059940008599400085994000859940008E9
:1093B00059940008599400085994000859940008D9
:1093C00059940008599400085994000859940008C9
:1093D00059940008599400085994000859940008B9
:1093E0002994000835940008419400084D94000821
:1093F000214BD3F840329AB23B681A802FE01E4BC3
:10940000D3F85C329AB23B681A8028E01A4BD3F842
:1094100078329AB23B681A8021E0174BD3F8943225
:109420009AB23B681A801AE0134B5B689AB23B68A9
:109430001A8014E0104B1B7A1A463B681A800EE023
:109440000D4B5B7A1A463B681A8008E00A4B9B7A00
:109450001A463B681A8002E00023FB7300BF3B689A
:109460001988FA7BFB881846FFF78CFCFB7B1846B3
:109470001037BD4680BD00BF6C06002080B582B0AD
:1094800000AF0A220949002000F07AF80346FB7178
:10949000FB79002B04D02822FF21044807F0D4FDDB
:1094A000FB7918460837BD4680BD00BF000000208C
:1094B00080B500AF0A220349002000F094F803466B
:1094C000184680BD0000002080B582B000AF0D4B73
:1094D0001B78002B12D00B4B00221A70FFF7E8FF0D
:1094E0000346FB71FB79002B05D0FB791946064832
:1094F00001F0AAFF02E0054801F0A6FF00BF08370F
:10950000BD4680BD1C0400204433010868330108B7
:1095100080B483B000AF786039607B680A2B01D9D2
:10952000042306E0064A7B6852F823203B681A6051
:10953000002318460C37BD465DF8047B704700BF1A
:109540000000002080B483B000AF786039607B6891
:109550000A2B01D9042308E007497B683A6841F8DF
:109560002320064B01221A70002318460C37BD46F3
:109570005DF8047B704700BF000000201C04002041
:1095800080B487B000AFF860B9601346FB80BB6859
:10959000002B01D1032320E0FA88FB6813440A2B37
:1095A00001D9052319E000237B6111E0FA687B698A
:1095B000134403F1007303F580539B0019467B6944
:1095C0009B00BA6813440A681A607B6901337B61A7
:1095D000FB887A699A42E9D3002318461C37BD46B6
:1095E0005DF8047B7047B0B590B000AFF860B9602B
:1095F0001346FB80BB68002B01D1032364E0FA888B
:10960000FB6813440A2B01D905235DE00A23BB87BD
:1096100007F1100328220021184607F015FD00234A
:1096200087F83B30BA8F07F1100319460020FFF787
:10963000A7FF034687F83B3097F83B30002B02D05A
:1096400097F83B3040E007F11002FB689B00D01810
:10965000FB889B001A46B96807F085FD00F038F8D2
:10966000034687F83B3097F83B30002B01D00123AD
:109670002AE004F01BF80023FB871FE0FB8F9B0010
:1096800003F1006101F58041FB8F9B0040333B44B7
:1096900053F8303C00221C46154622462B46022039
:1096A00003F0B0FF034687F83B3097F83B30002BC0
:1096B00001D0022308E0FB8F0133FB87FB8F092BCE
:1096C000DCD904F015F8002318464037BD46B0BD7C
:1096D00080B582B000AF0023FB711C4B00221A60E2
:1096E0001A4B01225A60194B01229A60174B012232
:1096F000DA60164B02221A6103F0D8FF144B0122E4
:10970000DA60134B0222DA60114B1022DA60104B40
:109710002022DA600E4B4022DA600D4B8022DA60A4
:109720003B461946094804F033F90346FB7103F040
:10973000DFFFFB79002B04D02822FF21054807F02A
:1097400083FCFB7918460837BD4680BD2004002005
:10975000003C02400000002080B582B000AF4FF412
:109760007A7003F087FD01224FF40061234804F072
:10977000DDFB2349234800F0CFFD0121214800F003
:109780003BFE204800F024FE1F49204801F0B4FDB4
:1097900001F0EEFD1E4801F027FE1E4801F054FEC8
:1097A00000F02CF900F03CF900F026FA00F018FB6C
:1097B0000121194803F05AF8184B194A19491A4857
:1097C00003F0D0F8184803F04DF9FFF7FBFA0E4B01
:1097D0001B78FB710C4B01221A70FB79002B01D016
:1097E000124B00E0124B1946124801F02DFE064ABA
:1097F000FB79137000BF0837BD4680BD00080240EA
:1098000094050020E80B00205C090020DC05002006
:1098100084330108883301089008002004050020E3
:10982000BC040020240600206C060020B033010890
:10983000B4330108B833010880B500AF00F01BF85D
:10984000FA21032000F0A0F80346002B04D00320E7
:1098500000F0C2F800F017F841F28831042000F05F
:1098600093F80346002B04D0042000F0B5F800F074
:1098700017F800BF80BD80B500AF00F023FC00F0FA
:1098800081FC00BF80BD80B500AF00F081FB00F01F
:10989000EFFBFFF719FE00F0E9FC00BF80BD000000
:1098A000F0B587B006AF314B1B78002B59D030484C
:1098B00001F06CFD2F4B93F8243218462D4B5A685B
:1098C0002C4B1B7A1C462B4B5B7A1946294B9B7AF7
:1098D0000193009123460146274801F0B5FD254B31
:1098E00093F84E321D46234B93F86A321E46214BA5
:1098F00093F886329C461F4B93F8A2321C461D4BB0
:10990000D3F840321B4AD2F85C221A49D1F87812B7
:109910001848D0F8940204900391029201930094A5
:10992000634632462946154801F08EFD144801F081
:109930008BFD104B93F8AE3219460E4B93F8BA32AA
:109940001A460C4B93F8C63218460A4B93F8D2329B
:10995000009303460B4801F077FD094801F074FDC0
:1099600000E000BF0437BD46F0BD00BF5C09002029
:10997000C83301086C060020CC3301080834010804
:10998000600900205034010880B582B000AF034662
:109990000A46FB711346BB8003F060FC0246FB796C
:1099A0000C4951F82330D21ABB889A4209D203F0ED
:1099B00055FC0246FB79074951F82330D31A002B96
:1099C00001DA012300E00023DBB218460837BD4668
:1099D00080BD00BF3404002090B583B000AF0346C3
:1099E000FB71FC7903F03AFC0346034A42F8243049
:1099F00000BF0C37BD4690BD3404002080B500AFD9
:109A000000220121044801F01FFD01220121034829
:109A100001F01AFD00BF80BD7834010894340108BC
:109A200090B595B002AF694B5B6F7B6400237B60A0
:109A300007F108033C220021184607F005FB3B1DF7
:109A40006349184601F04CFD97F8473023F07F0337
:109A5000DBB2002B04D03B1D5E49184601F040FDEF
:109A600097F8473003F04003DBB2002B04D03B1DD6
:109A70005949184601F034FD97F8473003F02003A8
:109A8000DBB2002B04D03B1D5449184601F028FDE1
:109A900097F8473003F01003DBB2002B04D03B1DD6
:109AA0004F49184601F01CFD97F8473003F00803B2
:109AB000DBB2002B04D03B1D4A49184601F010FDD3
:109AC00097F8473003F00403DBB2002B04D03B1DB2
:109AD0004549184601F004FD97F8473003F00203AA
:109AE000DBB2002B04D03B1D4049184601F0F8FCC6
:109AF0003B1D184601F0A8FC344B5B6F334A43F022
:109B000080735367FFF7BAFC00F042FA00233B6012
:109B10003B4619460520FFF7FBFC3B68B3F5803F49
:109B200002D34FF496433B603B68314A53603B4657
:109B300019460620FFF7ECFC3B68072B04D03B6876
:109B4000082B01D008233B603B68DAB2284B1A721D
:109B50003B4619460720FFF7DBFC3B68002B07D08C
:109B60003B68012B04D03B68022B01D002233B60F1
:109B70003B68DAB21E4B5A723B4619460820FFF783
:109B8000C7FC3B68012B04D03B68022B01D00123AA
:109B90003B603B68DAB2164B9A72154B93F824324D
:109BA0001846134B5A68124B1B7A1C46104B5B7AB3
:109BB00019460F4B9B7A01930091234601460D48AD
:109BC00001F042FC00BF4C37BD4690BD003802405A
:109BD000B0340108C4340108D0340108E03401086D
:109BE000F0340108FC340108083501081435010877
:109BF0006C060020CC33010880B582B000AF6F4BFB
:109C000000221A736D4B00225A736C4B00229A7318
:109C10006A4B0022DA73694B4FF496425A60674BE5
:109C200008221A72654B02225A72644B01229A7200
:109C3000624B634AC3F81422604B624AC3F818228D
:109C40005E4B614AC3F81C225C4B604AC3F8202279
:109C500000224FF480415E4804F068F900224FF47E
:109C600000415B4804F062F90023FB7126E0FA79B9
:109C700052491346DB009B1A9B000B4403F50D73FE
:109C8000FA791A70FA794D491346DB009B1A9B004A
:109C90000B4403F24E2300221A70FA791346DB00BC
:109CA0009B1A9B0003F50C73444A13440833642148
:109CB000184601F0C3FAFB790133FB71FB79032BE2
:109CC000D5D93E4B434AC3F848223C4B0122A3F866
:109CD0004C223A4B3F4AC3F86422384B0222A3F885
:109CE0006822364B3B4AC3F88022344B1022A3F83B
:109CF0008422324B364AC3F89C22304B4FF4807298
:109D0000A3F8A0220023BB7118E0BA792B491346AF
:109D10005B0013449B000B4403F52973BA791A7056
:109D2000BA79264913465B0013449B000B4403F2A7
:109D3000AE2300221A70BB790133BB71BB79032BB0
:109D4000E3D91E4B234AC3F8A8221C4B4FF4807260
:109D5000A3F8AC22194B1F4AC3F8B422174B4FF497
:109D60000072A3F8B822154B1A4AC3F8C022134B4D
:109D70004FF48062A3F8C422104B164AC3F8CC22D9
:109D80000E4B4FF40062A3F8D0220C4B0022C3F814
:109D9000EC220A4B104AC3F8E422084B4FF48062CD
:109DA000A3F8E822054B002283F8EA2264210B483D
:109DB00001F044FA00BF0837BD4680BD6C060020A4
:109DC000018E00081D8E0008458E00085D8E00087B
:109DD0000004024000000240000802404009002048
:109DE00080B582B000AFFFF749FB03467B717B79FA
:109DF000002B05D07B791946534801F025FB02E082
:109E0000524801F021FB0023FB8093E000233B60DC
:109E1000FB883A4611461846FFF77AFBFB88013B60
:109E2000082B00F2838001A252F823F0519E000813
:109E3000679E00087D9E0008939E0008A99E00086A
:109E4000BF9E0008D99E0008F99E0008139F0008D5
:109E50003B68B3F5803F01D364233B603B683C4AD9
:109E6000C2F8403263E03B68B3F5803F01D364231E
:109E70003B603B68364AC2F85C3258E03B68B3F559
:109E8000803F01D364233B603B68314AC2F878329B
:109E90004DE03B68B3F5803F01D364233B603B68F2
:109EA0002B4AC2F8943242E03B68B3F5803F02D3BC
:109EB0004FF496433B603B68254A536037E03B686C
:109EC000072B04D03B68082B01D008233B603B687C
:109ED000DAB21F4B1A722AE03B68002B07D03B68AE
:109EE000012B04D03B68022B01D002233B603B686E
:109EF000DAB2174B5A721AE03B68012B04D03B6868
:109F0000022B01D001233B603B68DAB2104B9A72FE
:109F10000DE03B68002B04D03B68012B01D00023EF
:109F20003B603B68DAB20B4B1A7000E000BFFB8865
:109F30000133FB80FB88092B7FF668AF00BF00BFB1
:109F40000837BD4680BD00BF1C35010844350108F7
:109F50006C0600205C09002080B500AFFFF7B8FB5D
:109F600000BF80BD80B400AFBFF34F8F00BF064B72
:109F7000DB6803F4E0620449044B1343CB60BFF396
:109F80004F8F00BF00BFFDE700ED00E00400FA05C1
:109F900080B582B000AF00237B6003F05FF902461A
:109FA0007B68934253D000233B704FF400712A48E2
:109FB00003F0A4FF034603F00103DAB23B7862F337
:109FC00000033B700821244803F098FF034603F088
:109FD0000103DAB23B7862F341033B704FF4004176
:109FE0001E4803F08BFF034603F00103DAB23B780F
:109FF00062F382033B700421174803F07FFF03469E
:10A0000003F00103DAB23B7862F3C3033B70144BF5
:10A0100093F824223B789A4219D03B78002B16D033
:10A020000F4B93F824321A460E490F4801F058FAA4
:10A030003A780B4B83F82422094B93F824321A46C2
:10A040000A49094801F04CFA074801F0FDF900BF40
:10A050000837BD4680BD00BF00040240000002403A
:10A060006C0600206435010860090020883501086D
:10A0700080B500AF124BDB7A002B1ED0104B0022B4
:10A08000DA720F4802F0EEFC0D4B5B6819460520B2
:10A09000FFF758FA0A4B1B7A19460620FFF752FAC7
:10A0A000074B5B7A19460720FFF74CFA044B9B7A63
:10A0B00019460820FFF746FA00E000BF80BD00BF48
:10A0C0006C06002080B584B000AF0023BB60002385
:10A0D000FB710023FB7348E0284800F09DF902461D
:10A0E0000B461346BB60FA7B25491346DB009B1ADF
:10A0F0009B000B4403F512731868FA7B2049134642
:10A10000DB009B1A9B000B4403F513731B88194655
:10A1100003F0F4FE0346FB71FA7B1346DB009B1A47
:10A120009B0003F50C73164A13440833FA79B96897
:10A13000184601F0A8F80346BB71F97BFA7B10487A
:10A140000B46DB005B1A9B00034403F51173187880
:10A150000B491346DB009B1A9B000B4403F24E2372
:10A1600002461A70FB7B0133FB73FB7B032BB3D9D5
:10A1700000BF00BF1037BD4680BD00BFE80B002008
:10A180006C06002090B583B000AF0023FB7160E047
:10A19000FA79344913465B0013449B000B4403F5E2
:10A1A0002A731868FA792F4913465B0013449B0001
:10A1B0000B4403F52B731B88FC79194603F09EFEB4
:10A1C00003461946274A23465B0023449B00134459
:10A1D00003F2AE230A461A70FA79224913465B004D
:10A1E00013449B000B4403F2AE231978FA791D48FF
:10A1F00013465B0013449B00034403F2AF231B7818
:10A20000994223D0F979FA7916480B465B000B4442
:10A210009B00034403F2AE231878124913465B00F7
:10A2200013449B000B4403F2AF2302461A70F979E2
:10A23000FA790C4813465B0013449B00034403F275
:10A24000AE231B781A46084801F0FEF8FB7901336B
:10A25000FB71FB79032B9BD900BF00BF0C37BD46B8
:10A2600090BD00BF6C0600209435010880B582B017
:10A2700000AF214800F0D0F802460B4613467B6041
:10A280004FF480611D4803F039FE0346FB70FB78F4
:10A290001A4679681A4800F0F6FF1A4B93F8E02244
:10A2A000184B83F8EA22174B93F8EA32002B19D0A7
:10A2B00002F0D4FF0246144B1B68D31A42F20F720D
:10A2C000934214D9114801F0BFF8FFF745FE10483A
:10A2D00001F0BAF8012002F0CDFF0E4801F0B4F809
:10A2E000FFF740FE02F0BAFF0346074A136000BFC3
:10A2F0000837BD4680BD00BFE80B002000080240C3
:10A30000400900206C06002048040020A835010800
:10A31000C0350108D835010880B52DED028B82B01B
:10A3200000AF78603960254A3B68136003F09EFFF8
:10A330000346234A1360214B1B685B6807EE903A83
:10A34000F8EE677AB7EE007A77EE877A9FED1D7A9E
:10A3500027EE878A03F08AFF07EE900AF8EE677A05
:10A3600088EE277A17EE100AFEF726F802460B460B
:10A370001549C1E9002315494FF000024FF00003D1
:10A38000C1E9002379684FF000024FF00003C1E9F2
:10A3900002237B6800221A617B6800221A707B68A6
:10A3A00000225A617B680022DA617B6800229A6190
:10A3B00000BF0837BD46BDEC028B80BD4C040020B9
:10A3C0005004002000247449580400206004002038
:10A3D00080B582B000AF78607B681B78012B04D118
:10A3E000044B1B68184604F05FFC00BF0837BD46ED
:10A3F00080BD00BF4C04002080B483B000AF786003
:10A400000B46FB707B68FA781A7000BF0C37BD46AC
:10A410005DF8047B704700002DE9B04382B000AFC7
:10A4200078607B681B78002B12D102F017FF03467F
:10A430004FF47A7202FB03F31846FDF79BFF0246C6
:10A440000B4610461946FEF71FFB02460B461EE060
:10A45000154B1B681B685B6A00221C461546134B94
:10A46000D3E9002314EB020845EB030940464946B3
:10A47000FDF7C4FF0E4BD3E90023FDF7F5FF0246BD
:10A480000B4610461946FEF7FFFA02460B4679685E
:10A49000C1E902237B68D3E9022310461946083735
:10A4A000BD46BDE8B08300BF4C040020600400201E
:10A4B000580400202DE9B04F8AB000AF7862786A66
:10A4C000FFF7AAFF7B6AD3E902013A4A4FF0000383
:10A4D000FEF7C2FA02460B467B6A5A617B6AD3E9F1
:10A4E0000201C7E900017B6A5B6900229A46934634
:10A4F00052465B464FF000004FF00001590141EA1F
:10A50000D261500102460B46B2EB0A0463EB0B0525
:10A510004FF000024FF000036B0243EAD453620293
:10A5200014461D4614EB0A0845EB0B094FF00002D8
:10A530004FF000034FEA891343EA98634FEA881209
:10A54000B2EB0801B96063EB0903FB60D7E90212C3
:10A550000B4613EB0A03BB61134643EB0B03FB6192
:10A56000D7E900010346D7E9064522469B1A3B611D
:10A570000B462A4663EB02037B614FF47A724FF07D
:10A580000003D7E90401FEF767FA02460B467B6A2F
:10A590009A617B6AD3E902014FF47A724FF00003AB
:10A5A000FEF75AFA7B6ADA6100BF2837BD46BDE87C
:10A5B000B08F00BF40420F002DE9B00383B000AF61
:10A5C000786079680969481C796808610E490968EA
:10A5D000C9680020884681467968096900200C46D0
:10A5E000054604FB09F008FB05F10144A8FB042320
:10A5F00019440B460549C1E9002300BF0C37BD468D
:10A60000BDE8B003704700BF4C0400206004002088
:10A6100080B582B000AF7860391D4FF0FF33012262
:10A62000034804F0C1FF7B6818460837BD4680BD6B
:10A63000DC05002080B500AF02F0AAFD00F02EF886
:10A6400000F066FA00F0B4F800F000F900F04CF900
:10A6500000F0CEF900F006FA00F02EFA00F092F9C0
:10A6600000F08CF8FFF778F807E002F0F7FD0346FA
:10A67000084A1360084803F0CEFC02F0EFFD0246E2
:10A68000044B1B68D31AB3F57A7FEED2FFF7D4F8E8
:10A69000EAE700BF080C00206804002080B594B0F1
:10A6A00000AF07F11C0334220021184606F0CCFC51
:10A6B00007F1080300221A605A609A60DA601A6192
:10A6C00000237B602B4B1B6C2A4A43F0805313649E
:10A6D000284B1B6C03F080537B607B6800233B603E
:10A6E000254B1B6823F44043234A43F48043136003
:10A6F000214B1B6803F440433B603B680A23FB612A
:10A700000123BB621023FB6201233B6302237B63B3
:10A710000023BB630823FB6354233B6402237B6455
:10A720000723BB640223FB6407F11C03184603F0F4
:10A73000CDFF0346002B01D000F0C2FA0F23BB600F
:10A740000223FB6000233B614FF480537B614FF495
:10A750008053BB6107F108030221184603F06CFC2B
:10A760000346002B01D000F0ABFA00BF5037BD46C6
:10A7700080BD00BF003802400070004080B500AFCF
:10A78000094B0A4A1A60084B04225A60064B40F6ED
:10A79000FF729A60044803F0FCFB0346002B01D0D3
:10A7A00000F08EFA00BF80BD680400200030004039
:10A7B00080B586B000AF07F1080300221A605A6026
:10A7C0009A60DA603B4600221A605A601D4B1E4AAE
:10A7D0001A601C4B53225A601A4B00229A60194B84
:10A7E00040F2CF72DA60174B00221A61154B00223B
:10A7F0009A61144804F008FA0346002B01D000F0D7
:10A800005FFA4FF48053BB6007F1080319460D4807
:10A8100004F0AAFB0346002B01D000F051FA1023EC
:10A820003B6000237B603B461946064804F0DCFD94
:10A830000346002B01D000F043FA00BF1837BD4695
:10A8400080BD00BF740400200004004080B586B0C5
:10A8500000AF07F1080300221A605A609A60DA60BC
:10A860003B4600221A605A601D4B1E4A1A601C4B60
:10A8700054225A601A4B00229A60194B40F21B6214
:10A88000DA60174B00221A61154B00229A611448B6
:10A8900004F0BAF90346002B01D000F011FA4FF48E
:10A8A0008053BB6007F1080319460D4804F05CFBB8
:10A8B0000346002B01D000F003FA00233B60002385
:10A8C0007B603B461946064804F08EFD0346002B8C
:10A8D00001D000F0F5F900BF1837BD4680BD00BFBC
:10A8E000BC0400200008004080B586B000AF07F12E
:10A8F000080300221A605A609A60DA603B46002220
:10A900001A605A601D4B1E4A1A601C4B54225A6032
:10A910001A4B00229A60194B40F63F62DA60174BDF
:10A9200000221A61154B00229A61144804F06CF958
:10A930000346002B01D000F0C3F94FF48053BB60F5
:10A9400007F1080319460D4804F00EFB0346002BDF
:10A9500001D000F0B5F900233B6000237B603B464B
:10A960001946064804F040FD0346002B01D000F0D4
:10A97000A7F900BF1837BD4680BD00BF0405002001
:10A98000000C004080B582B000AF3B4600221A6048
:10A990005A60154B154A1A60134B53225A60124BDA
:10A9A00000229A60104B4FF6FF72DA600E4B0022C5
:10A9B0009A610D4804F028F90346002B01D000F0FD
:10A9C0007FF900233B6000237B603B461946064825
:10A9D00004F00AFD0346002B01D000F071F900BF1E
:10A9E0000837BD4680BD00BF4C0500200010004068
:10A9F00080B584B000AF3B4600221A605A609A606E
:10AA0000DA60164B164A1A60144B53225A60134BE5
:10AA100000229A60114B4FF6FF72DA600F4B002252
:10AA20001A610E4B80229A610C4804F0EDF803463F
:10AA3000002B01D000F044F94FF480533B603B46BB
:10AA40001946064804F090FA0346002B01D000F0A6
:10AA500037F900BF1037BD4680BD00BF9405002008
:10AA60000040014080B500AF104B114A1A600F4BF7
:10AA7000104A5A600D4B00229A600C4B0022DA609B
:10AA80000A4B00221A61094B0C225A61074B002223
:10AA90009A61064B0022DA61044804F035FD034652
:10AAA000002B01D000F00CF900BF80BDDC050020B8
:10AAB0000044004000CA080080B500AF124B134AA2
:10AAC0001A60114B4FF496425A600F4B4FF480526C
:10AAD0009A600D4B0022DA600B4B4FF480621A61D2
:10AAE000094B0C225A61084B00229A61064B4FF425
:10AAF0000042DA61044804F007FD0346002B01D050
:10AB000000F0DEF800BF80BD2406002000140140E4
:10AB100080B58AB000AF07F1140300221A605A60B2
:10AB20009A60DA601A6100233B61604B1B6B5F4ADD
:10AB300043F0800313635D4B1B6B03F080033B61A9
:10AB40003B690023FB60594B1B6B584A43F00103E0
:10AB50001363564B1B6B03F00103FB60FB68002380
:10AB6000BB60524B1B6B514A43F0020313634F4BC4
:10AB70001B6B03F00203BB60BB6800237B604B4B85
:10AB80001B6B4A4A43F004031363484B1B6B03F0EF
:10AB900004037B607B6800233B60444B1B6B434A90
:10ABA00043F008031363414B1B6B03F008033B6046
:10ABB0003B6800224FF440413D4803F0B7F90022C2
:10ABC0004FF470613B4803F0B1F900224FF4C051DB
:10ABD000394803F0ABF900220421384803F0A6F904
:10ABE00048F213037B610023BB610223FB6107F181
:10ABF000140319462F4802F0EDFF4FF443737B61B5
:10AC00000023BB610223FB6107F1140319462848A6
:10AC100002F0E0FF4FF440437B610123BB6102235C
:10AC2000FB6102233B6207F114031946204802F03E
:10AC3000D1FF4FF470637B610123BB610223FB6191
:10AC400003233B6207F1140319461A4802F0C2FFBE
:10AC50004FF480637B610023BB610223FB6107F13A
:10AC600014031946144802F0B5FF4FF4C0537B613A
:10AC70000123BB610223FB6100233B6207F1140344
:10AC800019460D4802F0A6FF04237B610123BB6136
:10AC90000223FB6102233B6207F1140319460748B4
:10ACA00002F098FF00BF2837BD4680BD0038024043
:10ACB000000402400000024000080240000C024074
:10ACC00080B400AF72B600BF00BFFDE780B582B0B0
:10ACD00000AF00237B60164B5B6C154A43F4804346
:10ACE0005364134B5B6C03F480437B607B680023ED
:10ACF0003B600F4B1B6C0E4A43F0805313640C4BAC
:10AD00001B6C03F080533B603B68072002F0A6FBFE
:10AD1000012200216FF0040002F0ABFB04220021AD
:10AD20006FF0030002F0A5FB00BF0837BD4680BDF1
:10AD30000038024080B588B000AF78607B681B683F
:10AD40003E4A93420ED10023FB613D4B1B6C3C4AB3
:10AD500043F0020313643A4B1B6C03F00203FB61E4
:10AD6000FB6966E07B681B68364A934216D1002374
:10AD7000BB61334B1B6C324A43F004031364304B0A
:10AD80001B6C03F00403BB61BB69012200211E2080
:10AD900002F06FFB1E2002F088FB4AE07B681B6814
:10ADA000294A934216D100237B61254B1B6C244A10
:10ADB00043F008031364224B1B6C03F008037B6110
:10ADC0007B6901220021322002F053FB322002F085
:10ADD0006CFB2EE07B681B681C4A93420ED100235B
:10ADE0003B61174B1B6C164A43F010031364144B62
:10ADF0001B6C03F010033B613B691AE07B681B6826
:10AE0000134A934215D10023FB600D4B5B6C0C4A37
:10AE100043F4803353640A4B5B6C03F48033FB6070
:10AE2000FB6805220021182002F023FB182002F005
:10AE30003CFB00BF2037BD4680BD00BF0004004082
:10AE40000038024000080040000C004000100040A4
:10AE50000040014080B58CB000AF786007F11C0362
:10AE600000221A605A609A60DA601A617B681B6877
:10AE70003A4A934234D10023BB61394B1B6C384AA8
:10AE800043F400331364364B1B6C03F40033BB6193
:10AE9000BB6900237B61324B1B6B314A43F00103DA
:10AEA00013632F4B1B6B03F001037B617B690C2346
:10AEB000FB6102233B6200237B620023BB6207230A
:10AEC000FB6207F11C031946264802F083FE0422A8
:10AED0000021262002F0CDFA262002F0E6FA38E022
:10AEE0007B681B68204A934233D100233B611C4B93
:10AEF0005B6C1B4A43F020035364194B5B6C03F0FB
:10AF000020033B613B690023FB60154B1B6B144A1C
:10AF100043F004031363124B1B6B03F00403FB6049
:10AF2000FB68C023FB6102233B6200237B62032397
:10AF3000BB620823FB6207F11C0319460B4802F0B1
:10AF400049FE00220021472002F093FA472002F038
:10AF5000ACFA00BF3037BD4680BD00BF00440040A2
:10AF60000038024000000240001401400008024086
:10AF700080B400AF00BFFDE780B500AF024800F02D
:10AF800063FA00BFFDE700BFF035010880B500AFF0
:10AF9000024800F059FA00BFFDE700BF1036010873
:10AFA00080B500AF024800F04FFA00BFFDE700BFD8
:10AFB0003836010880B500AF024800F045FA00BFFE
:10AFC000FDE700BF5836010880B400AF00BFBD46A2
:10AFD0005DF8047B704780B400AF00BFBD465DF8EC
:10AFE000047B704780B400AF00BFBD465DF8047BB2
:10AFF000704780B500AF02F01DF900BF80BD0000B2
:10B0000080B500AF0348FFF7D7FA034803F0BCFE52
:10B0100000BF80BDE80B00209405002080B500AF84
:10B020000449054801F042FF044803F0ADFE00BFAB
:10B0300080BD00BF900800206C060020BC040020EA
:10B0400080B500AF024804F03BFB00BF80BD00BFED
:10B05000DC05002080B500AF034801F0CFFE0348B7
:10B0600003F092FE00BF80BD6C06002004050020A6
:10B0700080B500AF034801F03DFE034804F020FB1B
:10B0800000BF80BD6C0600202406002080B400AF05
:10B0900001231846BD465DF8047B704780B582B039
:10B0A00000AF7860396006F031F8034616221A6066
:10B0B0004FF0FF3318460837BD4680BD80B582B0DB
:10B0C00000AF78604FF0FF317868FFF7E7FF00BF0F
:10B0D000FDE780B586B000AFF860B9607A60002304
:10B0E0007B610AE0AFF300800146BB685A1CBA607E
:10B0F000CAB21A707B6901337B617A697B689A42B4
:10B10000F0DB7B6818461837BD4680BD80B586B039
:10B1100000AFF860B9607A6000237B6109E0BB682A
:10B120005A1CBA601B781846FFF772FA7B69013324
:10B130007B617A697B689A42F1DB7B681846183735
:10B14000BD4680BD80B483B000AF78604FF0FF3360
:10B1500018460C37BD465DF8047B704780B483B059
:10B1600000AF786039603B684FF400525A600023AA
:10B1700018460C37BD465DF8047B704780B483B039
:10B1800000AF7860012318460C37BD465DF8047B9C
:10B19000704780B485B000AFF860B9607A60002372
:10B1A00018461437BD465DF8047B704780B586B0FD
:10B1B00000AF7860144A154BD31A7B617B693B6101
:10B1C000134B1B68002B02D1114B124A1A60104B13
:10B1D0001A687B6813443A699A4207D205F096FFD1
:10B1E00003460C221A604FF0FF3309E0084B1B683E
:10B1F000FB60074B1A687B681344054A1360FB68C1
:10B2000018461837BD4680BD00000220000400002B
:10B210000C0C0020C00D002080B400AF064BD3F80A
:10B220008830054A43F47003C2F8883000BFBD4639
:10B230005DF8047B704700BF00ED00E080B582B090
:10B2400000AF78603960786800F007F87B683A688A
:10B250009A6000BF0837BD4680BD80B483B000AFA0
:10B2600078607B6800225A737B6800221A737B68BF
:10B2700000225A607B6800221A6000BF0C37BD466E
:10B280005DF8047B704780B487B000AFF860B960A8
:10B290001346FB710023FB75FB681B7BFA799A420E
:10B2A00001D1FB7D22E0FB68BA681A60FB681A686E
:10B2B000FB685B68D21AFB689B689A4215D3FB68EF
:10B2C000FA791A73FB681A7BFB685B7B9A4206D09B
:10B2D000FB681A7BFB685A730123FB7501E00023AE
:10B2E000FB75FB681A68FB685A60FB7D18461C37C3
:10B2F000BD465DF8047B704780B582B000AF7860D2
:10B300003960194A7B681360184A3B681360174B11
:10B310001B6800225A80154B1B68002283F8842288
:10B32000124B1B68002283F88522104B1B680433E4
:10B330004FF400720021184605F086FE0B4B1B6887
:10B3400003F5017380220021184605F07DFE7B681D
:10B350001B68DA687B681B6842F02002DA6000BF75
:10B360000837BD4680BD00BF100C0020140C002023
:10B3700080B400AF044B1B6801221A7000BFBD46A9
:10B380005DF8047B704700BF140C0020B0B584B09A
:10B3900000AF7860124B1B681B78012B1CD17868BA
:10B3A000FCF79EFE0346FB60FB68002B14D00D4BA0
:10B3B0001C68FB689DB2FB681BB2184600F0EAF8F7
:10B3C00003462A467968204604F0EEF8FB681A46E0
:10B3D0000021786805F038FE00BF1037BD46B0BDCB
:10B3E000140C0020100C00200FB480B582B000AF08
:10B3F000144B1B681B78012B01D000231AE007F1C6
:10B4000014033B600F4B1B6804333A6839691846D4
:10B4100005F010FE78607B68002B0ADD094B1B6885
:10B420007A6892B25A80074B1B6804331846FFF7BC
:10B43000ADFF7B6818460837BD46BDE8804004B0C4
:10B44000704700BF140C00200FB480B592B002AF5B
:10B450001F4B1B681B78012B01D0002330E007F144
:10B460004C03BB631A4B1B680433BA6BB96C1846A8
:10B4700005F0E0FDF863FB6B002B20DD144B1B682F
:10B48000FA6B92B25A801348FFF714F8114B5A69BD
:10B49000104B99690F4BDB69381D00930B460E4921
:10B4A00005F04EFD3B1D1846FFF770FF084B1B686B
:10B4B00004331846FFF76AFF0848FFF767FFFB6B86
:10B4C00018464037BD46BDE8804004B0704700BF15
:10B4D000140C0020E80B00207C360108903601088F
:10B4E0000EB480B5ADF5057D00AF07F50473A3F587
:10B4F00003731860264B1B681B78012B01D00023B7
:10B500003DE007F50873C7F8083207F10803D7F8DC
:10B510000822D7F81C12184605F08CFDC7F80C025B
:10B5200007F50473A3F503731868FCF7D9FD034608
:10B5300099B2D7F80C329AB2154B1B680A4492B2F2
:10B540005A80D7F80C32002B0FDD114B1B685B883B
:10B55000B3F5007F09D807F1080207F50473A3F5D6
:10B5600003731146186805F077FDD7F80C32002BED
:10B5700003DD074B1B685B8801E0D7F80C321846E7
:10B5800007F50577BD46BDE8804003B0704700BFB2
:10B59000140C002080B582B000AF0346FB80B7F9E1
:10B5A000063007EE903AF8EEE77A9FED0D7A67EEF7
:10B5B000877A17EE900AFCF7FFFE02460B4643EC33
:10B5C000102B07F01DFE53EC102B10461946FDF70B
:10B5D00023FA03469BB218460837BD4680BD00BF1C
:10B5E00058C7B13D80B485B000AF78600B467B8012
:10B5F000FF23FB73FF23BB7314E07B685A1C7A6044
:10B600001B78DAB2BB7B5340DBB2BB600F4ABB682E
:10B6100013441A78FB7B5340BB730D4ABB68134439
:10B620001B78FB737B885A1E7A80002BE5D1FB7B4D
:10B630001B021AB2BB7B1BB213431BB29BB2184650
:10B640001437BD465DF8047B704700BF2C00002016
:10B650002C01002080B483B000AF78600B46FB70F3
:10B66000054A7B681360044AFB78137200BF0C37ED
:10B67000BD465DF8047B7047180C002080B483B091
:10B6800000AF7860044A7B68536000BF0C37BD464A
:10B690005DF8047B704700BF180C002080B400AF39
:10B6A000034B5B7A1846BD465DF8047B704700BFCC
:10B6B000180C002080B584B000AF0346FB71012355
:10B6C000FB73354B00225A72FB79013B162B59D87C
:10B6D00001A252F823F000BF35B700083FB70008B9
:10B6E00049B7000853B700085DB7000867B70008FE
:10B6F0008BB7000885B7000885B7000885B7000834
:10B7000085B7000885B7000885B7000885B7000829
:10B7100071B700087BB7000885B7000885B7000837
:10B7200085B7000885B7000885B700088BB7000803
:10B730008BB7000800F050FB0346FB7326E000F0D7
:10B74000D9FB0346FB7321E000F0D0FD0346FB73F9
:10B750001CE000F03AFD0346FB7317E000F05AFCD2
:10B760000346FB7312E000F059FE0346FB730DE045
:10B7700000F082FC0346FB7308E000F085FE034600
:10B78000FB7303E00123FB7300E000BFFB7B184663
:10B790001037BD4680BD00BF180C002080B500AF3B
:10B7A0000B4B1B680A4A127A0021184605F04CFC24
:10B7B000074B5B68064A527A0021184605F044FCA4
:10B7C000034B00221A72024B00225A7200BF80BD46
:10B7D000180C002080B483B000AF0346FB710A4B05
:10B7E0005A68094B5B7A591CC8B20749487213441E
:10B7F000FA791A70044B00229A7200BF0C37BD46CA
:10B800005DF8047B704700BF180C002080B500AFC6
:10B8100000F0F2F903461846FFF7DCFF00F0F8F9F4
:10B8200003461846FFF7D6FF00BF80BD80B582B043
:10B8300000AF104B9B7A002B15D10E4B5B680D4A65
:10B84000527A11461846FFF7CDFE0346FB80FB886F
:10B85000DBB21846FFF7BEFFFB881B0A9BB2DBB2C8
:10B860001846FFF7B7FF034B00229A7200BF083754
:10B87000BD4680BD180C002080B582B000AF0346E5
:10B88000FB7100F0B9F903461846FFF7A3FF00F07B
:10B89000BFF90346803BDBB21846FFF79BFFFB79FD
:10B8A0001846FFF797FF00BF0837BD4680BD80B43C
:10B8B00083B000AF0346FB71FB79002B02D0FB790C
:10B8C000082B11D9FB790B2B0ED0FB790E2B02D94B
:10B8D000FB79102B08D9FB79152B02D9FB79172B93
:10B8E00002D9FB79422B01D1012300E00023DBB216
:10B8F00018460C37BD465DF8047B704790B583B0A1
:10B9000000AF042000F0A6F90346DB089BB2DCB2CE
:10B91000042000F09FF9034603F007039BB2002BBD
:10B9200014BF01230023DBB22344FB71042000F089
:10B9300091F903461F21184600F096F80346002BA4
:10B940001BD0104B1B6806331B78FA799A4214D12E
:10B95000022000F069F903461C46042000F07AF941
:10B9600003461A461F21204600F097F80346002B95
:10B9700001D0002302E0022300E0032318460C3725
:10B98000BD4690BD180C0020B0B584B000AF034692
:10B99000FB80042000F05EF90346DBB25B00FB7322
:10B9A000042000F057F903461A46FB8803F5C74305
:10B9B0003F339BB21946104600F056F80346002B61
:10B9C00020D0134B1B6806331B78FA7B9A4219D19F
:10B9D000022000F029F903461D46FB8803F5C74302
:10B9E0003F339CB2042000F035F903461A46214645
:10B9F000284600F052F80346002B01D0002302E055
:10BA0000022300E0032318461037BD46B0BD00BF37
:10BA1000180C002090B583B000AF044608461146CC
:10BA20001A462346FB800346BB800B467B801346A9
:10BA30003B803A887B881146184600F015F803468B
:10BA4000002B0CD07A88B988FB88184600F025F8BE
:10BA50000346002B01D0002302E0022300E0032371
:10BA600018460C37BD4690BD80B483B000AF034686
:10BA70000A46FB801346BB80FB88002B05D0FA8862
:10BA8000BB889A4201D8012300E00023DBB21846AC
:10BA90000C37BD465DF8047B704780B485B000AFBD
:10BAA0000346FB800B46BB8013467B80FA887B886D
:10BAB0001344FB81FA88BB889A4208D8FB89002B83
:10BAC00005D0FA89BB889A4201D8012300E00023FF
:10BAD000DBB218461437BD465DF8047B704780B46E
:10BAE00083B000AF0346FB80FB88002B03D0FB88AC
:10BAF000B3F57F4F01D1012300E00023DBB21846EC
:10BB00000C37BD465DF8047B704780B483B000AF4E
:10BB100003460A46FB801346BB80FA88BB889A42DC
:10BB200034BF01230023DBB218460C37BD465DF855
:10BB3000047B704780B500AF00F09AF803461846C2
:10BB4000FFF7CDFF0346002B0DD000F07BF8034636
:10BB50001F211846FFF7D9FF0346002B01D0002311
:10BB600002E0022300E00323184680BD80B483B0C6
:10BB700000AF0346FB80012318460C37BD465DF835
:10BB8000047B704780B500AF00F072F8034618469A
:10BB9000FFF7ECFF0346002B0DD000F053F80346EF
:10BBA00018211846FFF7B1FF0346002B01D00023F0
:10BBB00002E0022300E00323184680BD80B483B076
:10BBC00000AF0346FB710B4B1A68FB7913441B78DB
:10BBD0001B021AB2074B1968FB7901330B441B781F
:10BBE0001BB213431BB29BB218460C37BD465DF81F
:10BBF000047B7047180C002080B400AF034B1B6817
:10BC00001B781846BD465DF8047B7047180C002071
:10BC100080B400AF034B1B685B781846BD465DF8E7
:10BC2000047B7047180C002080B582B000AF03463B
:10BC3000FB71FB791846FFF7C1FF0346184608372A
:10BC4000BD4680BD80B500AF0220FFF7B7FF0346B9
:10BC5000184680BD80B582B000AF0346FB71FB790A
:10BC60001846FFF7ABFF034618460837BD4680BDB0
:10BC700080B500AF0420FFF7A1FF0346184680BD42
:10BC800080B483B000AF0346FB71054B1A68FB79A3
:10BC900013441B7818460C37BD465DF8047B70478B
:10BCA000180C002080B582B000AF0346FB71FB7911
:10BCB0001846FFF783FF034618460837BD4680BD88
:10BCC00080B582B000AF03463960FB80054B1B682E
:10BCD000FA88396810469847034618460837BD4623
:10BCE00080BD00BF300C002080B586B000AFF8608A
:10BCF000084611461A460346FB720B463B81134623
:10BD0000FB803B89FB8217E007F11402FB8A114696
:10BD10001846FFF7D5FF0346002B0BD0FA8A3B8964
:10BD2000D31A5B00FA681344BA8A1A80FB8A01337B
:10BD3000FB8201E0002304E0FA8AFB889A42E3D9FF
:10BD4000012318461837BD4680BD000080B584B079
:10BD500000AF78600B467B8013463B807B88FB817D
:10BD600019E00023BB81104B1B6807F10C01FA8915
:10BD7000104698470346002B0BD0FA897B88D31ACC
:10BD80005B007A681344BA891A80FB890133FB810E
:10BD900001E0002304E0FA893B889A42E1D90123BB
:10BDA00018461037BD4680BD380C002080B582B0E3
:10BDB00000AF03460A46FB801346BB80054B1B6859
:10BDC000B988FA8810469847034618460837BD4692
:10BDD00080BD00BF340C00202DE9F04784B000AFD7
:10BDE0000220FFF721FF03461E460420FFF732FF23
:10BDF00003461A461F231F213046FFF70BFE03465A
:10BE0000BB73BB7B002B6FD16B469A460420FFF7B8
:10BE100021FF0346DB089BB2DEB20420FFF71AFFC6
:10BE2000034603F007039BB2002B14BF012300233A
:10BE3000DBB233447B730220FFF7F6FE0346013387
:10BE40007B810420FFF706FF03461A467B891344D3
:10BE50003B81797B0B46013B7B60CBB2002298464D
:10BE600091464FF000024FF000034FEAC90343EA46
:10BE700058734FEAC802CBB200221C4615464FF059
:10BE800000024FF00003EB0043EA5473E2000B465C
:10BE90000733DB08DB00ADEB030D6B4600333B6083
:10BEA0003B897A89797B386800F026FC0346002BB1
:10BEB00017D0FFF7ABFC7B7B1846FFF78BFC00230A
:10BEC000FB7308E0FB7B3A68D35C1846FFF782FC03
:10BED000FB7B0133FB73FA7B7B7B9A42F2D3FF231C
:10BEE00000E00423D54600E0BB7B18461037BD4672
:10BEF000BDE8F0872DE9F04784B000AF0220FFF7DE
:10BF000093FE03461E460420FFF7A4FE03461A468E
:10BF1000042304213046FFF77DFD0346BB73BB7B42
:10BF2000002B71D16B469A460420FFF793FE03461F
:10BF3000DB089BB2DEB20420FFF78CFE034603F061
:10BF400007039BB2002B14BF01230023DBB2334451
:10BF50007B730220FFF768FE034603F51C53113381
:10BF60007B810420FFF776FE03461A467B89134443
:10BF70003B81797B0B46013B7B60CBB2002298462C
:10BF800091464FF000024FF000034FEAC90343EA25
:10BF900058734FEAC802CBB200221C4615464FF038
:10BFA00000024FF00003EB0043EA5473E2000B463B
:10BFB0000733DB08DB00ADEB030D6B4600333B6062
:10BFC0003B897A89797B386800F0EAFA0346002BCE
:10BFD00017D0FFF71BFC7B7B1846FFF7FBFB00230A
:10BFE000FB7308E0FB7B3A68D35C1846FFF7F2FB73
:10BFF000FB7B0133FB73FA7B7B7B9A42F2D3FF23FB
:10C0000000E00423D54600E0BB7B18461037BD4650
:10C01000BDE8F08790B583B000AFFFF78BFD034616
:10C02000FB71FB79002B1FD1FFF70CFE0346013398
:10C030009CB2FFF71DFE03461946204600F02CFB7C
:10C040000346002B0ED00B4B5B680A4A1168094A65
:10C05000127A184605F087F8064B1A7A054B5A7281
:10C06000FF2302E0042300E0FB7918460C37BD46AD
:10C0700090BD00BF180C002090B587B000AFFFF74F
:10C080003DFC03467B757B7D002B40F099800220B0
:10C09000FFF7CAFD034601337B820420FFF7DAFD78
:10C0A00003461A467B8A13443B820420FFF7D2FDE5
:10C0B0000346DB089BB2DCB20420FFF7CBFD03464E
:10C0C00003F007039BB2002B14BF01230023DBB254
:10C0D0002344FB730723BB810023FB753AE0BB8934
:10C0E000DAB2FB7D1344DBB21846FFF7C9FD034605
:10C0F0007B720023BB7527E0FB7D9BB2DB009AB20D
:10C100007B8A13449AB2BB7D9BB21344FB80FA88AE
:10C110007B8A9A421BD3FA883B8A9A4217D27A7A50
:10C12000BB7D42FA03F39BB203F001039AB2FB8892
:10C130001146184600F0B0FA0346002B01D1042343
:10C140003FE0BB7D0133BB75BB7D072BD4D9FB7DA5
:10C150000133FB75FA7DFB7B9A42C0D3FF237B81C1
:10C16000FFF754FB0220FFF75FFD03461B0A9BB25B
:10C17000DBB21846FFF72EFB0220FFF755FD034602
:10C18000DAB27B89DBB21340DBB21846FFF722FB41
:10C190000420FFF75FFD03461B0A9BB2DBB2184683
:10C1A000FFF718FB0420FFF755FD0346DAB27B8941
:10C1B000DBB21340DBB21846FFF70CFBFF2300E0B5
:10C1C0007B7D18461C37BD4690BD2DE9F04387B0F6
:10C1D00000AF0220FFF728FD03461E460420FFF7AC
:10C1E00039FD03461A46012301213046FFF712FCB0
:10C1F0000346BB75BB7D002B72D16B461E460420E7
:10C20000FFF728FD03467B75797D0B46013B3B61BB
:10C21000CBB20022984691464FF000024FF0000347
:10C220004FEA091343EA18734FEA0812CBB200220F
:10C230001C4615464FF000024FF000032B0143EA65
:10C24000147322010B465B000733DB08DB00ADEB08
:10C25000030D6B4601335B085B00FB600220FFF7B8
:10C26000E3FC034603F5EA4331337B817B7D9AB2DD
:10C270007B8913449BB2013B3B813B897A89797D61
:10C28000F868FFF731FD0346002B26D07B7D5B006D
:10C29000FB71FFF7BBFAFB791846FFF79BFA002307
:10C2A000FB7514E0FA7DFB6833F812301B0A9BB271
:10C2B000DBB21846FFF78EFAFA7DFB6833F81230CE
:10C2C000DBB21846FFF786FAFB7D0133FB75FA7D7A
:10C2D0007B7D9A42E6D3FF2300E00423B54600E0CD
:10C2E000BB7D18461C37BD46BDE8F0832DE9F04301
:10C2F00087B000AF0220FFF797FC03461E460420DC
:10C30000FFF7A8FC03461A46182318213046FFF70A
:10C3100081FB0346BB75BB7D002B78D16B461E4667
:10C320000420FFF797FC03467B75797D0B46013BA4
:10C330003B61CBB20022984691464FF000024FF08D
:10C3400000034FEA091343EA18734FEA0812CBB20D
:10C3500000221C4615464FF000024FF000032B014F
:10C3600043EA147322010B465B000733DB08DB0052
:10C37000ADEB030D6B4601335B085B00FB600220F5
:10C38000FFF752FC0346A3F5C7433F3B7B817B7D10
:10C390009AB27B8913449BB2013B3B813A897B89EA
:10C3A0001946F868FFF7D2FC0346002B2CD0FF2378
:10C3B000FB807B7D5B007B71FFF728FA7B79184659
:10C3C000FFF708FA0023FB7518E0FA7DFB6833F8E5
:10C3D00012301B0A9BB2DBB21846FFF7FBF9FA7D5D
:10C3E000FB6833F81230DAB2FB88DBB21340DBB201
:10C3F0001846FFF7EFF9FB7D0133FB75FA7D7B7D76
:10C400009A42E2D3FF2300E00423B54600E0BB7D5F
:10C4100018461C37BD46BDE8F083000090B583B0D8
:10C4200000AFFFF7AFFB0346FB71FB79002B23D175
:10C43000FFF708FC0346A3F5C7433F3B9CB2FFF759
:10C4400017FC034619462046FFF7B0FC0346012BB4
:10C4500010D10C4B5B680B4A11680A4A127A1846D5
:10C4600004F081FEFFF7EEFB064B1A7A054B5A7279
:10C47000FF2302E0042300E0FB7918460C37BD4699
:10C4800090BD00BF180C002080B584B000AF49F605
:10C490005940FFF779FA0346FB72FB7A002B65D10E
:10C4A0000220FFF7C1FB0346A3F5C7433F3B3B8197
:10C4B0000420FFF7CFFB03461A463B8913449BB287
:10C4C000013BFB800723FB733B89BB8116E0FB7BB1
:10C4D0001846FFF7E7FB03467B80FB7B0233FB73C9
:10C4E0007A88BB8911461846FFF760FC0346002B8B
:10C4F00001D104233BE0BB890133BB81BA89FB88AE
:10C500009A42E4D9FF23BB80FFF780F90220FFF7AE
:10C510008BFB03461B0A9BB2DBB21846FFF75AF9A6
:10C520000220FFF781FB0346DAB2BB88DBB213407F
:10C53000DBB21846FFF74EF90420FFF78BFB0346EA
:10C540001B0A9BB2DBB21846FFF744F90420FFF741
:10C5500081FB0346DAB2BB88DBB21340DBB218467C
:10C56000FFF738F9FFF76EFBFF2300E0FB7A184670
:10C570001037BD4680BD000080B582B000AF0346D5
:10C580003960FB80054B1B68FA883968104698476C
:10C59000034618460837BD4680BD00BF240C002066
:10C5A00080B586B000AFF860084611461A460346CB
:10C5B000FB720B463B811346FB8000237B750023F7
:10C5C0003B750023FB743B89FB8241E00023BB7475
:10C5D00007F11202FB8A11461846FFF7CDFF03460A
:10C5E000002B30D0BB7C012B2BD8BB7C1A46FB7CAC
:10C5F000DBB2591CC9B2F97402FA03F35AB23B7D9B
:10C60000DBB25BB213435BB2DBB23B75FB7CDBB2EC
:10C61000072B1AD97B7DDBB2FA7A9A420FD97B7D40
:10C62000DBB25A1CD2B27A751A46FB6813443A7DC3
:10C63000D2B21A7000233B750023FB7405E000237F
:10C6400026E0002324E0002322E0FB8A0133FB8262
:10C65000FA8AFB889A42B9D3FB7CDBB2002B16D056
:10C66000FB7CDBB2072B12D87B7DDBB2FA7A9A42D5
:10C670000BD97B7DDBB25A1CD2B27A751A46FB68A5
:10C6800013443A7DD2B21A7001E0002300E0012386
:10C6900018461837BD4680BD80B582B000AF03464E
:10C6A0000A46FB801346BB80084B1B68FA88D0B251
:10C6B000BA88002A14BF01220022D2B2114698473C
:10C6C000034618460837BD4680BD00BF280C002031
:10C6D00080B582B000AF03463960FB80054B1B6814
:10C6E000FA88D2B239681046984703461846083788
:10C6F000BD4680BD2C0C002080B586B000AFF86030
:10C70000084611461A460346FB720B463B81134608
:10C71000FB800023FB750023BB7500237B753B89E1
:10C720007B8238E000237B7407F111027B8A11467B
:10C730001846FFF7CDFF0346002B27D07B7C012B4B
:10C7400022D87B7C1A467B7D591C797502FA03F34B
:10C750005AB297F9163013435BB2BB757B7D072B3A
:10C7600016D9FA7DFB7A9A420CD2FB7D5A1CFA75D7
:10C770001A46FB681344BA7D1A700023BB75002368
:10C780007B7505E0002320E000231EE000231CE071
:10C790007B8A01337B827A8AFB889A42C2D37B7D73
:10C7A000002B11D07B7D072B0ED8FA7DFB7A9A42A5
:10C7B00008D2FB7D5A1CFA751A46FB681344BA7DF1
:10C7C0001A7001E0002300E0012318461837BD4627
:10C7D00080BD000080B483B000AF7860044A7B68FD
:10C7E000136000BF0C37BD465DF8047B704700BF87
:10C7F000240C002080B483B000AF78603960064A12
:10C800007B681360054A3B68136000BF0C37BD4668
:10C810005DF8047B704700BF280C00202C0C002022
:10C8200080B483B000AF7860044A7B68136000BFB7
:10C830000C37BD465DF8047B704700BF300C00200C
:10C8400080B483B000AF78603960064A7B681360BB
:10C85000054A3B68136000BF0C37BD465DF8047B9A
:10C86000704700BF340C0020380C002080B483B027
:10C8700000AF78600B46FB70064A7B681360054B7F
:10C880001B68FA781A7000BF0C37BD465DF8047B50
:10C89000704700BF3C0C002080B400AF034B1B6806
:10C8A0001846BD465DF8047B704700BF3C0C002075
:10C8B00080B584B000AF78607B685A687B681B7B6A
:10C8C00019461046FEF7C6FE7B689B681846FEF7C1
:10C8D000D5FE0023FB73FFF79BF90346BB73BB7BBD
:10C8E0001846FEF7E4FF0346002B06D0BB7B184634
:10C8F000FEF7E0FE0346FB7301E00123FB73FB7BC5
:10C90000002B2AD0FB7BFF2B07D0FB7BFE2B04D018
:10C91000FB7B1846FEF7B0FF04E0FB7BFE2B01D14A
:10C9200000231BE07B685B681B78002B15D0FEF7AB
:10C930007DFFFEF7B3FE03461A467B685A73BB7B46
:10C94000052B02D0BB7B062B05D17B685B7B023BB2
:10C95000DAB27B685A73012300E0002318461037CF
:10C96000BD4680BD80B584B000AFF860B9607A6024
:10C970003B602A4AFB681360294ABB681360294A56
:10C980007B681360284A3B681360264B1B681B6852
:10C99000184600F04BF8244B1B681B68184600F043
:10C9A00045F8FB680022DA731E4B1B681B680022E7
:10C9B0005A621C4B1B681B681A681A4B1B681B6861
:10C9C00022F001021A60174B1B681B681A69154B8D
:10C9D0001B681B6822F001021A61134B1B681B685D
:10C9E00000225A62104B1B681B681A680E4B1B68AA
:10C9F0001B6822F001021A600B4B1B681B681A6946
:10CA0000094B1B681B6822F001021A61FB68D3F80E
:10CA10002032984700BF1037BD4680BD4C0C002027
:10CA2000400C0020440C0020480C002080B483B04F
:10CA300000AF78607B681B6823F001027B681A6096
:10CA40007B685B6943F001027B685A617B68DB6845
:10CA500043F001027B68DA6000BF0C37BD465DF829
:10CA6000047B704790B585B000AF78600123FB73FD
:10CA7000704B1B681B68DA686E4B1B681B6822F0E2
:10CA80002002DA606C4B1B681B6800225A626A4BFA
:10CA90001B681B681A68684B1B681B6822F0010240
:10CAA0001A60654B1B681B681A69634B1B681B681F
:10CAB00022F001021A61614B1B681B6800225A6256
:10CAC0005E4B1B681B681A685C4B1B681B6822F076
:10CAD00001021A60594B1B681B681A69574B1B6887
:10CAE0001B6822F001021A617B685B68B3F5803F26
:10CAF0000FD27B685B68002B0BD04E4B1B687A68AB
:10CB000052685A607B681B7A072B05D0082B08D027
:10CB10000DE00023FB737EE0464B1B6800229A6009
:10CB200008E0444B1B684FF480529A6002E00023F7
:10CB3000FB7370E07B685B7A022B11D0022B15DC53
:10CB4000002B02D0012B05D010E03A4B1B680022CD
:10CB50001A610EE0374B1B684FF4C0621A6108E09F
:10CB6000344B1B684FF480621A6102E00023FB73B0
:10CB700051E07B689B7A012B02D0022B05D00AE0A2
:10CB80002C4B1B680022DA6008E02A4B1B684FF42C
:10CB90000052DA6002E00023FB733CE0FB7B012BD8
:10CBA00038D1244B1B685B68234A1468B7EE080A27
:10CBB000184600F075FA0346E3601E4B1B685B687D
:10CBC0001E4A1468B0EE0C0A184600F069FA0346D3
:10CBD000E360194B1B68184602F016F80346002B59
:10CBE00002D00023FB7316E0144B1B68184602F0BA
:10CBF0000BF80346002B02D00023FB730BE00D4B18
:10CC00001B68184602F080FC0346002B02D000236C
:10CC1000FB7300E000BF074B1B681B68DA68054B1D
:10CC20001B681B6842F02002DA60FB7B1846143751
:10CC3000BD4690BD400C0020440C0020480C002054
:10CC400080B584B000AF78600123FB737B68B3F8D4
:10CC50001232002B42D07B689B7B002B3BD17B6840
:10CC60000022A3F8102201224FF400411F4801F0D6
:10CC70005DF97B68D3F81C3298477B68D3F818328B
:10CC80007A6802F588707A68B2F8122211469847DD
:10CC90000346002B02D00023FB7311E07B680122C6
:10CCA0009A73134B1B681B6800225A62104B1B6857
:10CCB0001B681A680E4B1B681B6842F001021A6061
:10CCC0007B68D3F82032984700224FF40041074890
:10CCD00001F02CF904E00023FB7301E00023FB7357
:10CCE000FB7B18461037BD4680BD00BF00040240E4
:10CCF000480C002090B583B000AF78607B680122BB
:10CD00005A733B4B1B681B6800225A62384B1B68E6
:10CD10001B681A68364B1B681B6822F001021A60F8
:10CD2000334B1B681B681A69314B1B681B6822F068
:10CD300001021A612F4B1B681B6800225A622D4B9F
:10CD40001B681B681A682B4B1B681B6822F00102CA
:10CD50001A60284B1B681B681A69264B1B681B68E6
:10CD600022F001021A617B68B3F81032FF2B12D84F
:10CD70007B68D3F814227B68B3F81032591C88B250
:10CD80007968A1F810021C46904703461A467B6852
:10CD900023441A7404E07B684FF48072A3F81022D5
:10CDA000134B1B681B6800225A62114B1B681B68DF
:10CDB0001A680F4B1B681B6842F001021A600D4B8A
:10CDC0001B681B6800225A620A4B1B681B681A68A2
:10CDD000084B1B681B6842F001021A604FF4804147
:10CDE000054801F0BCF800BF0C37BD4690BD00BF40
:10CDF000440C0020480C00200004024080B582B0A2
:10CE000000AF786000224FF48041264801F08EF890
:10CE10007B6800229A73244B1B681B681B6903F014
:10CE20000103002B3AD0204B1B681B6800225A627A
:10CE30001D4B1B681B681A681B4B1B681B6822F084
:10CE400001021A60184B1B681B681A69164B1B6895
:10CE50001B6822F001021A617B6801221A737B6849
:10CE6000B3F81032042B04D97B68B3F81032FF2BCF
:10CE700007D97B680022A3F810227B6800221A736E
:10CE800009E0786800F094F87B6800225A737B68A8
:10CE90000022A3F810227B6800225A7300BF0837D3
:10CEA000BD4680BD00040240480C002080B584B01F
:10CEB00000AF786039603D4B1B681B681B6903F04D
:10CEC0000103002B6DD0394B1B681B6800225A628E
:10CED000364B1B681B681A68344B1B681B6822F0B2
:10CEE00001021A60314B1B681B681A692F4B1B68C3
:10CEF0001B6822F001021A617B680022DA737B68EA
:10CF0000B3F81032022B4CD97B681A7C3B681B7833
:10CF10009A4203D07B681B7C002B42D17B68B3F81C
:10CF20001032013B7A6813441B7C1B021AB27B68E7
:10CF3000B3F81032023B79680B441B7C1BB21343DD
:10CF40001BB2FB817B6803F110027B68B3F81032DF
:10CF5000023B9BB219461046FEF744FB0346BB81D9
:10CF6000FA89BB899A4219D17B6803F110023B68A8
:10CF70005A607B6803F588723B689A607B68B3F8F7
:10CF80001032DAB23B681A737B68B3F81232DAB245
:10CF90003B685A737B680122DA7302E07B680022E7
:10CFA000DA7300BF1037BD4680BD00BF440C0020BF
:10CFB00080B584B000AF78607B681B7B002B68D0A5
:10CFC0007B6800221A737B68DB7B002B58D0FFF74D
:10CFD00063FCF8600023FB727B6803F11002FB68BE
:10CFE0005A607B6803F58872FB689A607B68B3F8C7
:10CFF0001032DAB2FB681A737B68B3F81232DAB215
:10D00000FB685A73F868FFF753FC0346BB72FB6872
:10D010001B7B1A467B68A3F81022FB685B7B1A46D1
:10D020007B68A3F81222BB7A002B1AD07868FFF72E
:10D0300007FE0346FB72FB7A012B02D01748FEF76E
:10D0400003FA7B680022A3F810227B680022A3F871
:10D050001222FB6800221A73FB6800225A73FEF743
:10D060009DFB7B680022A3F810227B680022A3F8B6
:10D070001222FB6800221A73FB6800225A7301E037
:10D08000FEF78CFB7B680022A3F810227B6800224D
:10D09000DA7300BF1037BD4680BD00BFA03601085F
:10D0A00080B52DED028B82B000AF786087ED000A6D
:10D0B000D7ED007A9FED107A27EE878A786800F026
:10D0C0001DF8F0EE407A68EE277A17EE900AFBF72B
:10D0D00073F902460B4643EC102B06F091F853EC23
:10D0E000102B10461946FBF797FC034618460837E5
:10D0F000BD46BDEC028B80BD00007A4480B483B095
:10D1000000AF78607B68002B09D07B6807EE903A0F
:10D11000F8EE677ADFED076A86EEA77A01E09FED09
:10D12000067AF0EE477AB0EE670A0C37BD465DF836
:10D13000047B704700E02B464260853FDFF834D027
:10D140000D480E490E4A002302E0D458C45004335F
:10D15000C4188C42F9D30B4A0B4C002301E0136036
:10D160000432A242FBD3FEF757F803F0D5FFFDF7D8
:10D1700061FA70470000022000000020FC0300203C
:10D18000583A010800040020C00D0020FEE700000E
:10D1900080B500AF0E4B1B680D4A43F4007313605B
:10D1A0000B4B1B680A4A43F480631360084B1B68EF
:10D1B000074A43F480731360032000F04FF9002006
:10D1C00000F008F8FDF782FD0023184680BD00BF7F
:10D1D000003C024080B582B000AF7860124B1A6804
:10D1E000124B1B7819464FF47A73B3FBF1F3B2FB81
:10D1F000F3F3184600F067F90346002B01D0012332
:10D200000EE07B680F2B0AD8002279684FF0FF30C0
:10D2100000F02FF9064A7B681360002300E0012329
:10D2200018460837BD4680BD280000203002002087
:10D230002C02002080B400AF064B1B781A46064B28
:10D240001B681344044A136000BFBD465DF8047BAD
:10D25000704700BF30020020500C002080B400AFA7
:10D26000034B1B681846BD465DF8047B704700BF42
:10D27000500C002080B584B000AF7860FFF7EEFF5F
:10D28000B8607B68FB60FB68B3F1FF3F05D00A4BD9
:10D290001B781A46FB681344FB6000BFFFF7DEFFF4
:10D2A0000246BB68D31AFA689A42F7D800BF00BF9B
:10D2B0001037BD4680BD00BF3002002080B485B06D
:10D2C00000AF78607B6803F00703FB600C4BDB6802
:10D2D000BB60BA684FF6FF031340BB60FB681A02DD
:10D2E000BB68134343F0BF6343F40033BB60044A9D
:10D2F000BB68D36000BF1437BD465DF8047B704740
:10D3000000ED00E080B400AF044BDB681B0A03F0C3
:10D3100007031846BD465DF8047B704700ED00E04A
:10D3200080B483B000AF0346FB7197F90730002B40
:10D330000BDBFB7903F01F02074997F907305B0904
:10D34000012000FA02F241F8232000BF0C37BD464D
:10D350005DF8047B704700BF00E100E080B483B05B
:10D3600000AF03463960FB7197F90730002B0ADBE9
:10D370003B68DAB20C4997F907301201D2B20B447C
:10D3800083F800230AE03B68DAB20849FB7903F02E
:10D390000F03043B1201D2B20B441A7600BF0C37C4
:10D3A000BD465DF8047B704700E100E000ED00E061
:10D3B00080B489B000AFF860B9607A60FB6803F0B0
:10D3C0000703FB61FB69C3F10703042B28BF042398
:10D3D000BB61FB690433062B02D9FB69033B00E008
:10D3E00000237B614FF0FF32BB6902FA03F3DA439B
:10D3F000BB681A407B699A404FF0FF317B6901FAA4
:10D4000003F3D9437B680B40134318462437BD46CA
:10D410005DF8047B7047000080B582B000AF786093
:10D420007B68013BB3F1807F01D301230FE00A4AFF
:10D430007B68013B53600F214FF0FF30FFF78EFFF9
:10D44000054B00229A60044B07221A6000231846FD
:10D450000837BD4680BD00BF10E000E080B582B057
:10D4600000AF78607868FFF729FF00BF0837BD4636
:10D4700080BD80B586B000AF0346B9607A60FB73AB
:10D4800000237B61FFF73EFF78617A68B9687869AD
:10D49000FFF78EFF024697F90F3011461846FFF747
:10D4A0005DFF00BF1837BD4680BD80B582B000AFBC
:10D4B0000346FB7197F907301846FFF731FF00BFAD
:10D4C0000837BD4680BD80B582B000AF786078680F
:10D4D000FFF7A2FF034618460837BD4680BD80B55A
:10D4E00084B000AF78607B689B6DFB60FFF7B6FE91
:10D4F000B8607B6893F83530DBB2022B08D07B68CC
:10D5000080225A657B68002283F83420012352E090
:10D510007B681B681A687B681B6822F016021A6019
:10D520007B681B685A697B681B6822F080025A611D
:10D530007B681B6C002B03D17B689B6C002B07D096
:10D540007B681B681A687B681B6822F008021A60F7
:10D550007B681B681A687B681B6822F001021A60EE
:10D5600013E0FFF77BFE0246BB68D31A052B0CD9EC
:10D570007B6820225A657B68032283F835207B680C
:10D58000002283F83420032315E07B681B681B68A6
:10D5900003F00103002BE4D17B68DB6D3F229A404E
:10D5A000FB689A607B68012283F835207B68002243
:10D5B00083F83420002318461037BD4680BD80B460
:10D5C00083B000AF78607B6893F83530DBB2022B14
:10D5D00004D07B6880225A6501230CE07B68052219
:10D5E00083F835207B681B681A687B681B6822F00B
:10D5F00001021A60002318460C37BD465DF8047B13
:10D600007047000080B586B000AFF860B960C7E928
:10D6100000230123FB75234B1B7E012B01D1022329
:10D620003BE0204B01221A764CF2503000F070F8AB
:10D630000346FB75FB7D002B2BD1FB68002B05D12E
:10D640003B781946B86800F01BF916E0FB68012B1F
:10D6500005D13B881946B86800F0EEF80DE0FB688C
:10D66000022B05D13B681946B86800F0C3F804E006
:10D67000D7E90023B86800F08BF84CF2503000F086
:10D6800047F80346FB75084B1B69074A23F0010363
:10D690001361044B00221A76FB7D18461837BD46ED
:10D6A00080BD00BF540C0020003C024080B483B019
:10D6B00000AF0023FB710B4B1B69002B0BDA094BEE
:10D6C000094A5A60074B094A5A60064B1B69002BEE
:10D6D00001DA0123FB71FB7918460C37BD465DF872
:10D6E000047B7047003C024023016745AB89EFCDC6
:10D6F00080B400AF054B1B69044A43F0004313613B
:10D7000000231846BD465DF8047B7047003C02408C
:10D7100080B584B000AF78600023FB601A4B002214
:10D72000DA61FFF79BFDF86010E07B68B3F1FF3F23
:10D730000CD07B68002B07D0FFF790FD0246FB68FA
:10D74000D31A7A689A4201D2032319E00F4BDB689F
:10D7500003F48033002BE8D10C4BDB6803F00103AA
:10D76000002B02D0094B0122DA60084BDB6803F47E
:10D77000F973002B03D000F0A5F8012300E000238B
:10D7800018461037BD4680BD540C0020003C0240B6
:10D7900080B485B000AFF860C7E90023144B1B6963
:10D7A000134A23F440731361114B1B69104A43F46D
:10D7B000407313610E4B1B690D4A43F00103136163
:10D7C000FB683A681A60BFF36F8F00BFD7E90001AA
:10D7D0004FF000024FF000030A000023F968043103
:10D7E00013460B6000BF1437BD465DF8047B7047DD
:10D7F000003C024080B483B000AF786039600D4BCC
:10D800001B690C4A23F4407313610A4B1B69094AD4
:10D8100043F400731361074B1B69064A43F001038D
:10D8200013617B683A681A6000BF0C37BD465DF82B
:10D83000047B7047003C024080B483B000AF786046
:10D840000B467B800D4B1B690C4A23F4407313611C
:10D850000A4B1B69094A43F480731361074B1B6928
:10D86000064A43F0010313617B687A881A8000BF7F
:10D870000C37BD465DF8047B704700BF003C02409A
:10D8800080B483B000AF78600B46FB700C4B1B6913
:10D890000B4A23F440731361094B094A1B69136156
:10D8A000074B1B69064A43F0010313617B68FA7852
:10D8B0001A7000BF0C37BD465DF8047B704700BF8F
:10D8C000003C024080B400AF2F4BDB6803F0100334
:10D8D000002B08D02D4BDB6943F010032B4AD3619A
:10D8E000294B1022DA60284BDB6803F02003002B61
:10D8F00008D0264BDB6943F00803244AD361224B4E
:10D900002022DA60204BDB6803F04003002B08D0B4
