:020000040800F2
:1000000000000220BDD90008E5B40008EDB40008E6
:1000100001B5000815B5000829B50008000000006A
:100020000000000000000000000000003DB50008D6
:100030004BB500080000000059B5000867B500087E
:100040000DDA00080DDA00080DDA00080DDA0008F4
:100050000DDA00080DDA00080DDA00080DDA0008E4
:100060000DDA00080DDA00080DDA00080DDA0008D4
:100070000DDA00080DDA00080DDA00080DDA0008C4
:100080000DDA00080DDA00080DDA00080DDA0008B4
:100090000DDA00080DDA00080DDA00080DDA0008A4
:1000A00075B500080DDA00080DDA00080DDA000851
:1000B0000DDA00080DDA000891B500080DDA000825
:1000C0000DDA00080DDA00080DDA00080DDA000874
:1000D0000DDA00080DDA0008B5B500080DDA0008E1
:1000E0000DDA00080DDA00080DDA00080DDA000854
:1000F0000DDA00080DDA00080DDA00080DDA000844
:100100000DDA00080DDA0008C9B500080DDA00089C
:100110000DDA00080DDA00080DDA00080DDA000823
:100120000DDA00080DDA00080DDA00080DDA000813
:100130000DDA000800000000000000000DDA0008E1
:100140000DDA00080DDA00080DDA00080DDA0008F3
:100150000DDA00080DDA00080DDA0008E5B5000830
:100160000DDA00080DDA00080DDA00080DDA0008D3
:100170000DDA00080DDA00080DDA000800000000B2
:10018000000000000DDA0008000000000000000080
:100190000DDA000800000000000000000DDA000881
:1001A0000000000000000000000000000DDA000860
:1001B0000DDA00080DDA00080DDA00080DDA000883
:0401C0000DDA00084C
:1080000010B5054C237833B9044B13B10448AFF3D2
:1080100000800123237010BD180400200000000020
:10802000603B010808B5034B1BB103490348AFF39C
:10803000008008BD000000001C040020603B010817
:1080400001F0FF01102A2BDB10F0070F08D010F809
:10805000013B013A8B422DD010F0070F42B3F6D10D
:10806000F0B441EA012141EA014122F007047FF026
:1080700000070023F0E80256083C85EA010586EA7D
:10808000010685FA47F5A3FA87F586FA47F6A5FAB9
:1080900087F68EB9EED1F0BC01F0FF0102F00702C5
:1080A00032B110F8013B013A83EA010313B1F8D170
:1080B0000020704701387047002D06BF3546033851
:1080C000073815F0010F07D1013015F4807F02BF8A
:1080D000013015F4C03F0130F0BC0138704700BFDB
:1080E000034613F8012B002AFBD1181A01387047F8
:1080F00081F0004102E000BF83F0004330B54FEA59
:1081000041044FEA430594EA050F08BF90EA020FC5
:108110001FBF54EA000C55EA020C7FEA645C7FEA58
:10812000655C00F0E2804FEA5454D4EB5555B8BF7B
:108130006D420CDD2C4480EA020281EA030382EAEC
:10814000000083EA010180EA020281EA0303362D7E
:1081500088BF30BD11F0004F4FEA01314FF4801C51
:108160004CEA113102D0404261EB410113F0004F63
:108170004FEA03334CEA133302D0524263EB43031A
:1081800094EA050F00F0A780A4F10104D5F1200EB8
:108190000DDB02FA0EFC22FA05F2801841F1000113
:1081A00003FA0EF2801843FA05F359410EE0A5F1E7
:1081B00020050EF1200E012A03FA0EFC28BF4CF018
:1081C000020C43FA05F3C01851EBE37101F00045CE
:1081D00007D54FF0000EDCF1000C7EEB00006EEBDB
:1081E0000101B1F5801F1BD3B1F5001F0CD3490865
:1081F0005FEA30004FEA3C0C04F101044FEA4452BC
:1082000012F5800F80F09A80BCF1004F08BF5FEA42
:10821000500C50F1000041EB045141EA050130BD22
:108220005FEA4C0C404141EB0101013C28BFB1F534
:10823000801FE9D291F0000F04BF01460020B1FA7F
:1082400081F308BF2033A3F10B03B3F120020CDA52
:108250000C3208DD02F1140CC2F10C0201FA0CF030
:1082600021FA02F10CE002F11402D8BFC2F1200C95
:1082700001FA02F120FA0CFCDCBF41EA0C0190404B
:10828000E41AA2BF01EB0451294330BD6FEA040494
:108290001F3C1CDA0C340EDC04F11404C4F120027F
:1082A00020FA04F001FA02F340EA030021FA04F391
:1082B00045EA030130BDC4F10C04C4F1200220FAE8
:1082C00002F001FA04F340EA0300294630BD21FA26
:1082D00004F0294630BD94F0000F83F4801306BFEC
:1082E00081F480110134013D4EE77FEA645C18BFE0
:1082F0007FEA655C29D094EA050F08BF90EA020F77
:1083000005D054EA000C04BF1946104630BD91EA6E
:10831000030F1EBF0021002030BD5FEA545C05D171
:108320004000494128BF41F0004130BD14F58004B0
:108330003CBF01F5801130BD01F0004545F0FE4124
:1083400041F470014FF0000030BD7FEA645C1ABF59
:10835000194610467FEA655C1CBF0B46024650EA90
:10836000013406BF52EA033591EA030F41F40021BC
:1083700030BD00BF90F0000F04BF0021704730B542
:108380004FF4806404F132044FF000054FF0000117
:1083900050E700BF90F0000F04BF0021704730B5D8
:1083A0004FF4806404F1320410F0004548BF4042AD
:1083B0004FF000013EE700BF42004FEAE2014FEA02
:1083C00031014FEA02701FBF12F07F4393F07F4FDD
:1083D00081F06051704732F07F4208BF704793F0E0
:1083E0007F4F04BF41F40021704730B54FF46074F3
:1083F00001F0004521F000411CE700BF50EA0102F6
:1084000008BF704730B54FF000050AE050EA01029E
:1084100008BF704730B511F0004502D5404261EB0E
:1084200041014FF4806404F132045FEA915C3FF44F
:10843000D8AE4FF003025FEADC0C18BF03325FEAEC
:10844000DC0C18BF033202EBDC02C2F1200300FA9D
:1084500003FC20FA02F001FA03FE40EA0E0021FAC2
:1084600002F11444BDE600BF70B54FF0FF0C4CF4B0
:10847000E06C1CEA11541DBF1CEA135594EA0C0F62
:1084800095EA0C0F00F0DEF82C4481EA030621EA9D
:108490004C5123EA4C5350EA013518BF52EA0335D8
:1084A00041F4801143F4801338D0A0FB02CE4FF08A
:1084B0000005E1FB02E506F00042E0FB03E54FF0BA
:1084C0000006E1FB03569CF0000F18BF4EF0010EB2
:1084D000A4F1FF04B6F5007F64F5407404D25FEAAE
:1084E0004E0E6D4146EB060642EAC62141EA555161
:1084F0004FEAC52040EA5E504FEACE2EB4F1FD0CA3
:1085000088BFBCF5E06F1ED8BEF1004F08BF5FEA20
:10851000500E50F1000041EB045170BD06F00046D2
:1085200046EA010140EA020081EA0301B4EB5C047F
:10853000C2BFD4EB0C0541EA045170BD41F4801177
:108540004FF0000E013C00F3AB8014F1360FDEBF9C
:10855000002001F0004170BDC4F10004203C35DA78
:108560000C341BDC04F11404C4F1200500FA05F3FB
:1085700020FA04F001FA05F240EA020001F000429C
:1085800021F0004110EBD37021FA04F642EB060112
:108590005EEA430E08BF20EAD37070BDC4F10C043C
:1085A000C4F1200500FA04F320FA05F001FA04F200
:1085B00040EA020001F0004110EBD37041F10001EC
:1085C0005EEA430E08BF20EAD37070BDC4F12005F7
:1085D00000FA05F24EEA020E20FA04F301FA05F25F
:1085E00043EA020321FA04F001F0004121FA04F207
:1085F00020EA020000EBD3705EEA430E08BF20EAD7
:10860000D37070BD94F0000F0FD101F00046400010
:1086100041EB010111F4801F08BF013CF7D041EA92
:10862000060195F0000F18BF704703F00046520096
:1086300043EB030313F4801F08BF013DF7D043EA67
:108640000603704794EA0C0F0CEA135518BF95EA1D
:108650000C0F0CD050EA410618BF52EA4306D1D1A4
:1086600081EA030101F000414FF0000070BD50EAC3
:10867000410606BF1046194652EA430619D094EA4D
:108680000C0F02D150EA013613D195EA0C0F05D137
:1086900052EA03361CBF104619460AD181EA03018B
:1086A00001F0004141F0FE4141F470014FF0000043
:1086B00070BD41F0FE4141F4780170BD70B54FF0DE
:1086C000FF0C4CF4E06C1CEA11541DBF1CEA13555E
:1086D00094EA0C0F95EA0C0F00F0A7F8A4EB050440
:1086E00081EA030E52EA03354FEA013100F0888037
:1086F0004FEA03334FF0805545EA131343EA126300
:108700004FEA022245EA111545EA10654FEA0026B4
:108710000EF000419D4208BF964244F1FD0404F56D
:10872000407402D25B084FEA3202B61A65EB0305C9
:108730005B084FEA32024FF480104FF4002CB6EB86
:10874000020E75EB030E22BFB61A754640EA0C0006
:108750005B084FEA3202B6EB020E75EB030E22BF46
:10876000B61A754640EA5C005B084FEA3202B6EB87
:10877000020E75EB030E22BFB61A754640EA9C0046
:108780005B084FEA3202B6EB020E75EB030E22BF16
:10879000B61A754640EADC0055EA060E18D04FEAD4
:1087A000051545EA16754FEA06164FEAC30343EA74
:1087B00052734FEAC2025FEA1C1CC0D111F4801F41
:1087C0000BD141EA00014FF000004FF0004CB6E73A
:1087D00011F4801F04BF01430020B4F1FD0C88BFD9
:1087E000BCF5E06F3FF6AFAEB5EB030C04BFB6EBE4
:1087F000020C5FEA500C50F1000041EB045170BDD7
:108800000EF0004E4EEA113114EB5C04C2BFD4EB03
:108810000C0541EA045170BD41F480114FF0000E87
:10882000013C90E645EA060E8DE60CEA135594EA03
:108830000C0F08BF95EA0C0F3FF43BAF94EA0C0F06
:108840000AD150EA01347FF434AF95EA0C0F7FF47B
:1088500025AF104619462CE795EA0C0F06D152EACF
:1088600003353FF4FDAE1046194622E750EA4106B3
:1088700018BF52EA43067FF4C5AE50EA41047FF4C4
:108880000DAF52EA43057FF4EBAE12E74FF0FF3C29
:1088900006E000BF4FF0010C02E000BF4FF0010CFA
:1088A0004DF804CD4FEA410C7FEA6C5C4FEA430C73
:1088B00018BF7FEA6C5C1BD001B050EA410C0CBFC2
:1088C00052EA430C91EA030F02BF90EA020F002024
:1088D000704710F1000F91EA030F58BF994208BF8B
:1088E00090422CBFD8176FEAE37040F00100704748
:1088F0004FEA410C7FEA6C5C02D150EA013C07D19F
:108900004FEA430C7FEA6C5CD6D152EA033CD3D0E9
:108910005DF8040B704700BF8446104662468C46E3
:108920001946634600E000BF01B5FFF7B7FF002816
:1089300048BF10F1000F01BD4DF808EDFFF7F4FF3F
:108940000CBF012000205DF808FB00BF4DF808EDCA
:10895000FFF7EAFF34BF012000205DF808FB00BFED
:108960004DF808EDFFF7E0FF94BF012000205DF80F
:1089700008FB00BF4DF808EDFFF7CEFF94BF0120C4
:1089800000205DF808FB00BF4DF808EDFFF7C4FFBD
:1089900034BF012000205DF808FB00BF4FEA410C06
:1089A0007FEA6C5C02D150EA013C0AD14FEA430CE9
:1089B0007FEA6C5C02D152EA033C02D14FF0000026
:1089C00070474FF0010070474FEA410212F5001264
:1089D00015D211D56FF47873B3EB625212D94FEA06
:1089E000C12343F0004343EA505311F0004F23FAF0
:1089F00002F018BF404270474FF00000704750EA45
:108A0000013005D111F0004008BF6FF00040704701
:108A10004FF00000704700BF4A0011D212F500125B
:108A200011D20DD56FF47873B3EB62520ED44FEAC6
:108A3000C12343F0004343EA505323FA02F0704746
:108A40004FF00000704750EA013002D14FF0FF3084
:108A500070474FF00000704753B94AB9002908BF6A
:108A600000281CBF4FF0FF314FF0FF3000F088B9F5
:108A7000ADF1080C6DE904CE00F024F8DDF804E057
:108A8000DDE9022304B07047D0B50C4B0022064646
:108A90000F46FFF7E9FCFFF7BFFF0446FFF76AFC4C
:108AA000074B0022FFF7E0FC02460B4630463946F2
:108AB000FFF722FBFFF7B0FF2146D0BD0000F03DDD
:108AC0000000F0412DE9F047089D0C46002B4ED1E7
:108AD00094468C458646B2FA82F262D94AB1C2F116
:108AE0002003914020FA03F30CFA02FC194300FA28
:108AF00002FE4FEA1C471FFA8CF6B1FBF7F44FEA6F
:108B00001E4307FB141143EA014304FB06F199429B
:108B10000AD91CEB030304F1FF3080F01281994263
:108B200040F20F81023C6344591A1FFA8EF3B1FBE5
:108B3000F7F007FB101143EA014300FB06F69E42E3
:108B40000AD91CEB030300F1FF3180F0FC809E4248
:108B500040F2F980634402389B1B40EA0440002144
:108B60001DB1D3400022C5E90032BDE8F0878B4239
:108B700005D90DB1C5E9000100210846F5E7B3FAB2
:108B800083F1002946D1A34202D39042C0F0F08085
:108B9000861A64EB03030120002DE6D0C5E90063CB
:108BA000E3E7002A40F09080A1EB0C044FEA1C4858
:108BB0001FFA8CF70121B4FBF8F64FEA1E4308FBBD
:108BC000164443EA044307FB06F0984208D91CEB1D
:108BD000030306F1FF3402D2984200F2CD8026460C
:108BE0001C1A1FFA8EF3B4FBF8F008FB104443EA9A
:108BF000044300FB07F79F4208D91CEB030300F175
:108C0000FF3402D29F4200F2B0802046DB1B40EAD4
:108C10000640A5E7C1F120068B4022FA06F71F4364
:108C200020FA06FC04FA01F343EA0C03F44000FACC
:108C300001F8380C4FEA1349B4FBF0FE1FFA87FC29
:108C400000FB1E4449EA04440EFB0CF9A14502FA5C
:108C500001F20AD93C190EF1FF3A80F08480A14557
:108C600040F28180AEF1020E3C44A4EB09041FFAED
:108C700083F9B4FBF0F300FB134449EA044403FB1B
:108C80000CFCA44507D93C1903F1FF3067D2A44579
:108C900065D9023B3C4443EA0E40A0FB0293A4EB9F
:108CA0000C049C42CE469C4651D34ED055B1B8EBF5
:108CB0000E0364EB0C0404FA06F6CB401E43CC40D2
:108CC000C5E90064002150E7C2F1200320FA03F156
:108CD0000CFA02FC24FA03F394400C434FEA1C48BC
:108CE00000FA02FE1FFA8CF7B3FBF8F008FB103114
:108CF000230C43EA014300FB07F1994208D91CEB1E
:108D0000030300F1FF362CD299422AD9023863447A
:108D10005B1AA4B2B3FBF8F108FB113344EA034435
:108D200001FB07F3A34208D91CEB040401F1FF3651
:108D300013D2A34211D902396444E41A41EA004132
:108D400039E70446F0E6084606E7C845AED2B9EB77
:108D5000020E63EB070C0138A8E73146EDE7034646
:108D600099E73046D4E7D6467FE7634402384DE7BB
:108D70000646234608460FE7023E634430E700BF3D
:108D8000704700BF80B582B000AF0346FB800B4642
:108D9000BB801346FB70FB78012B06D1FB88BA8899
:108DA0001946064802F0DAFE04E0FB88194604483A
:108DB00002F0D4FE00BF0837BD4680BD783B0108F5
:108DC0008C3B010880B500AF074804F043F9074920
:108DD000074804F04FF9074804F062F906490748CC
:108DE00004F06EF900BF80BD758E00084191000847
:108DF0003D8F0008D592000889950008219300084E
:108E000080B400AF044B1B685B68DBB21846BD46FC
:108E10005DF8047B704700BF3C06002080B582B03F
:108E200000AF78600B467B807B880A337A8879684C
:108E3000034806F0F9FF034618460837BD4680BDD3
:108E40003C06002080B500AF01220421024805F055
:108E5000ADFC00BF80BD00BF000C024080B500AF7C
:108E600000220421024805F0A1FC00BF80BD00BF24
:108E7000000C024080B584B000AF03463960FB802F
:108E80000123FB73FB88A3F51C53113B072B43D82D
:108E900001A252F823F000BFB98E0008C58E000869
:108EA000D18E0008DD8E0008E98E0008F58E0008DE
:108EB000018F00080D8F00081F4B93F86E223B684E
:108EC0001A702CE01C4B93F88A223B681A7026E03B
:108ED000194B93F8A6223B681A7020E0164B93F8C2
:108EE000C2223B681A701AE0134B93F8DE223B68EB
:108EF0001A7014E0104B93F8FA223B681A700EE0D7
:108F00000D4B93F816233B681A7008E00A4B93F850
:108F100032233B681A7002E00023FB7300BF3B68FA
:108F20001B781946FA7BFB881846FFF72BFFFB7B63
:108F300018461037BD4680BD8406002080B584B039
:108F400000AF03460A46FB711346BB710123FB7356
:108F5000FB79013B1E2B00F2D68001A252F823F0D0
:108F6000DD8F0008F78F0008119000082B90000893
:108F7000459000085F9000087990000893900008E1
:108F80000791000807910008079100080791000861
:108F90000791000807910008079100080791000851
:108FA0000791000807910008079100080791000841
:108FB000AD900008B59000080791000807910008DF
:108FC0000791000807910008079100080791000821
:108FD0000791000807910008DF900008BB79002B7B
:108FE00014BF01230023DBB21A464FF480714E48B0
:108FF00005F0DCFB8AE0BB79002B14BF01230023C2
:10900000DBB21A464FF40071474805F0CFFB7DE014
:10901000BB79002B14BF01230023DBB21A464FF4A7
:109020008061414805F0C2FB70E0BB79002B14BFA2
:1090300001230023DBB21A464FF400613A4805F0E1
:10904000B5FB63E0BB79002B14BF01230023DBB227
:109050001A464FF48051344805F0A8FB56E0BB791E
:10906000002B14BF01230023DBB21A464FF400711A
:109070002E4805F09BFB49E0BB79002B14BF012370
:109080000023DBB21A464FF48071284805F08EFBAE
:109090003CE0BB79002B14BF01230023DBB21A464E
:1090A0004FF48051224805F081FB2FE0214B012233
:1090B000DA722BE0BB79002B03D01F4802F041FE8F
:1090C00002E01D4802F05CFEBB79002B14BF0123B7
:1090D0000023DBB219460D2000F06CFB16E0BB79D3
:1090E000002B14BF01230023DBB21A46134B1A7066
:1090F000BB79002B14BF01230023DBB219460F20DC
:1091000000F058FB02E00023FB7300BFFB799BB229
:10911000BA7991B2FA7B1846FFF734FEFB7B18460A
:109120001037BD4680BD00BF00000240000802406D
:109130000004024084060020C4080020340A0020F5
:1091400080B584B000AF03463960FB710123FB7327
:10915000FB79013B1E2B00F2A18001A252F823F003
:10916000DD910008F19100080592000819920008AD
:109170002D9200084192000855920008699200085B
:109180009D9200089D9200089D9200089D92000803
:109190009D9200089D9200089D9200089D920008F3
:1091A0009D9200089D9200089D9200089D920008E3
:1091B0007D920008879200089D9200089D92000809
:1091C0009D9200089D9200089D9200089D920008C3
:1091D0009D9200089D920008939200084FF48071C0
:1091E000374805F0CBFA03461A463B681A7058E038
:1091F0004FF40071324805F0C1FA03461A463B6845
:109200001A704EE04FF480612D4805F0B7FA03461E
:109210001A463B681A7044E04FF40061284805F094
:10922000ADFA03461A463B681A703AE04FF4805193
:10923000234805F0A3FA03461A463B681A7030E04B
:109240004FF400711F4805F099FA03461A463B682F
:109250001A7026E04FF480711A4805F08FFA034621
:109260001A463B681A701CE04FF48051164805F00E
:1092700085FA03461A463B681A7012E0134BDA7AF5
:109280003B681A700DE0114B93F840223B681A704E
:1092900007E00F4B1A783B681A7002E00023FB735B
:1092A00000BFFB7998B23B681B781946FB7B1A46D6
:1092B000FFF768FDFB7B18461037BD4680BD00BF39
:1092C0000000024000080240000402408406002022
:1092D000340A002080B584B000AF03463960FB80BB
:1092E0000123FB73FB8847F23152934206D10B4BAB
:1092F00093F830321A463B681A8002E00023FB7371
:1093000000BF3B681988FA7BFB881846FFF73AFDD7
:10931000FB7B18461037BD4680BD00BF8406002089
:1093200080B584B000AF03460A46FB801346BB807D
:109330000123FB73FB88A3F51C43413B192B00F26F
:10934000FF8001A252F823F0B1930008D1930008E6
:10935000F19300081194000831940008519400081A
:109360006F9400088D94000841950008419500080D
:109370004195000841950008419500084195000875
:109380004195000841950008419500084195000865
:109390004195000841950008AB940008B39400087B
:1093A000CF940008F19400080D9500083995000845
:1093B000BB88734AC2F86032BB881946012000F0AE
:1093C000F9F90346002B00F0BE800023FB73BAE0DE
:1093D000BB886B4AC2F87C32BB881946022000F079
:1093E000E9F90346002B00F0B0800023FB73ACE0EA
:1093F000BB88634AC2F89832BB881946032000F044
:10940000D9F90346002B00F0A2800023FB739EE0F5
:10941000BB885B4AC2F8B432BB881946042000F00E
:10942000C9F90346002B00F094800023FB7390E001
:10943000BB88534AC2F8D032BB881946052000F0D9
:10944000B9F90346002B00F086800023FB7382E00D
:10945000BB884B4AC2F8EC32BB881946062000F0A4
:10946000A9F90346002B78D00023FB7375E0BB8875
:10947000434AC2F80833BB881946072000F09AF91E
:109480000346002B6BD00023FB7368E0BB883C4A8B
:10949000C2F82433BB881946082000F08BF9034634
:1094A000002B5ED00023FB735BE0BB88344A536023
:1094B0005AE0BB88072B02D0BB88082B04D1BB889D
:1094C000DAB22F4B1A724FE00023FB734CE0BB88DB
:1094D000002B05D0BB88012B02D0BB88022B04D106
:1094E000BB88DAB2264B5A723EE00023FB733BE0A6
:1094F000BB88012B02D0BB88022B04D1BB88DAB217
:109500001F4B9A7230E00023FB732DE0BB88B3F54C
:109510007A7F0ED3BB881A4AC2F84832BB881946F4
:109520000E2000F047F90346002B1CD00023FB73EC
:1095300019E00023FB7316E0124802F077FC13E0F9
:109540000023FB7310E000BF0EE000BF0CE000BF83
:109550000AE000BF08E000BF06E000BF04E000BF73
:1095600002E000BF00E000BFFA7BB988FB88184624
:10957000FFF708FCFB7B18461037BD4680BD00BFD7
:1095800084060020C408002080B584B000AF0346E4
:109590003960FB800123FB73FB88A3F51C43413B2F
:1095A000192B00F2928001A252F823F015960008C0
:1095B00023960008319600083F9600084D96000853
:1095C0005B9600086996000877960008CB9600081D
:1095D000CB960008CB960008CB960008CB960008E7
:1095E000CB960008CB960008CB960008CB960008D7
:1095F000CB960008CB960008CB960008859600080D
:10960000919600089D960008A9960008B596000856
:10961000C3960008344BD3F860329AB23B681A8084
:1096200056E0314BD3F87C329AB23B681A804FE057
:109630002D4BD3F898329AB23B681A8048E02A4BF7
:10964000D3F8B4329AB23B681A8041E0264BD3F883
:10965000D0329AB23B681A803AE0234BD3F8EC320E
:109660009AB23B681A8033E01F4BD3F808339AB2A2
:109670003B681A802CE01C4BD3F824339AB23B6829
:109680001A8025E0184B5B689AB23B681A801FE08D
:10969000154B1B7A1A463B681A8019E0124B5B7A0D
:1096A0001A463B681A8013E00F4B9B7A1A463B68B8
:1096B0001A800DE00C4BD3F848329AB23B681A80FE
:1096C00006E03B6800221A8002E00023FB7300BF23
:1096D0003B681988FA7BFB881846FFF753FBFB7B36
:1096E00018461037BD4680BD8406002080B582B084
:1096F00000AF10220949002000F07AF80346FB7100
:10970000FB79002B04D04022FF21044808F0D2F856
:10971000FB7918460837BD4680BD00BF0000002019
:1097200080B500AF10220349002000F094F80346F2
:10973000184680BD0000002080B582B000AF0D4B00
:109740001B78002B12D00B4B00221A70FFF7E8FF9A
:109750000346FB71FB79002B05D0FB7919460648BF
:1097600002F0FCF902E0054802F0F8F900BF083702
:10977000BD4680BD34040020AC3B0108D03B01084D
:1097800080B483B000AF786039607B68102B01D95A
:10979000042306E0064A7B6852F823203B681A60DF
:1097A000002318460C37BD465DF8047B704700BFA8
:1097B0000000002080B483B000AF786039607B681F
:1097C000102B01D9042308E007497B683A6841F867
:1097D0002320064B01221A70002318460C37BD4681
:1097E0005DF8047B704700BF0000002034040020B7
:1097F00080B487B000AFF860B9601346FB80BB68E7
:10980000002B01D1032320E0FA88FB681344102BBE
:1098100001D9052319E000237B6111E0FA687B6917
:10982000134403F1007303F580539B0019467B69D1
:109830009B00BA6813440A681A607B6901337B6134
:10984000FB887A699A42E9D3002318461C37BD4643
:109850005DF8047B7047B0B596B000AFF860B960B2
:109860001346FB80BB68002B01D103236CE0FA8810
:10987000FB681344102B01D9052365E01023A7F8DA
:10988000543007F1100340220021184608F012F866
:10989000002387F85330B7F8542007F11003194616
:1098A0000020FFF7A5FF034687F8533097F85330A1
:1098B000002B02D097F8533046E007F11002FB6806
:1098C0009B00D018FB889B001A46B96808F081F805
:1098D00000F03EF8034687F8533097F85330002BDA
:1098E00001D0012330E004F021FB0023A7F856301B
:1098F00023E0B7F856309B0003F1006101F5804189
:10990000B7F856309B0058333B4453F8483C00228C
:109910001C46154622462B46022004F0B3FA0346A5
:1099200087F8533097F85330002B01D002230BE017
:10993000B7F856300133A7F85630B7F856300F2B2A
:10994000D7D904F015FB002318465837BD46B0BDE3
:1099500080B582B000AF0023FB711C4B00221A605F
:109960001A4B01225A60194B01229A60174B0122AF
:10997000DA60164B02221A6104F0D8FA144B012265
:10998000DA60134B0222DA60114B1022DA60104BBE
:109990002022DA600E4B4022DA600D4B8022DA6022
:1099A0003B461946094804F033FC0346FB7104F0BA
:1099B000DFFAFB79002B04D04022FF21054807F095
:1099C00079FFFB7918460837BD4680BD3804002072
:1099D000003C02400000002080B582B000AF4FF490
:1099E0007A7004F087F801224FF40061264804F0F1
:1099F000DDFE2649264800F00FFF0121244800F033
:109A00007BFF234800F064FF2249234801F0FEFF5A
:109A100002F038F8214802F071F8214802F09EF86F
:109A200000F08EF900F09EF91E4A4FF47A711E483C
:109A300002F062F900F082FA00F0B8FB01211B4845
:109A400003F054FB1A4B1B4A1B491C4803F0CAFB8A
:109A50001A4803F047FCFFF7B5F90E4B1B78FB7172
:109A60000C4B01221A70FB79002B01D0144B00E043
:109A7000144B1946144802F071F8064AFB7913702A
:109A800000BF0837BD4680BD00080240AC0500207D
:109A9000C00C0020340A0020F4050020EC3B010833
:109AA000F03B0108DDDA0008C4080020B4080020FB
:109AB0001C050020D40400203C0600208406002061
:109AC000183C01081C3C0108203C010880B500AF8F
:109AD00000F01BF8FA21032000F0F8F80346002BF1
:109AE00004D0032000F01AF900F017F841F2883191
:109AF000042000F0EBF80346002B04D0042000F013
:109B00000DF900F019F800BF80BD80B500AF00F07E
:109B100059FD00F0B7FD00BF80BD80B500AF00F07B
:109B200079FC00F0E7FC00F00FFDFFF705FE00F008
:109B30001DFE00BF80BD00002DE9F04194B00EAFC6
:109B40005B4B1B78002B00F0AE805A4801F0A8FF59
:109B5000594B93F830329C46574B5A68564B1B7AF8
:109B60009E46554B5B7A1846534B9B7A1C46524B8C
:109B700093F840321D46504BD3F848324E4991F885
:109B80004C120E464C4991F84D12059104960393E0
:109B900002950194009073466146484801F0DEFF4B
:109BA000454B93F86E329C46434B93F88A329E465F
:109BB000414B93F8A63298463F4B93F8C2327B61F3
:109BC0003D4B93F8DE323B613B4B93F8FA32FB603E
:109BD000394B93F81633BB60374B93F832337B60C5
:109BE000354BD3F86002344BD3F87C42324BD3F878
:109BF0009852314BD3F8B4622F4BD3F8D0223A604D
:109C00002D4BD3F8EC122C4BD3F808232A4BD3F866
:109C100024330C930B920A913A680992089607959F
:109C2000069405907A680492BA680392FA680292E0
:109C30003A6901927B690093434672466146204827
:109C400001F08CFF1F4801F089FF1B4B93F83E3356
:109C50001D46194B93F84A331E46174B93F856335B
:109C60009C46154B93F862331A46134B93F86E33A8
:109C70001946114B93F87A3318460F4B93F88633F5
:109C80001C460D4B93F89233049303940290019178
:109C900000926346324629460B4801F05FFF0948AF
:109CA00001F05CFF00E000BF1837BD46BDE8F08161
:109CB000340A0020303C010884060020343C0108AE
:109CC000903C0108380A0020FC3C010880B582B0B5
:109CD00000AF03460A46FB711346BB8003F0FEFE4D
:109CE0000246FB790C4951F82330D21ABB889A42BC
:109CF00009D203F0F3FE0246FB79074951F82330FD
:109D0000D31A002B01DA012300E00023DBB218464E
:109D10000837BD4680BD00BF4C04002090B583B01D
:109D200000AF0346FB71FC7903F0D8FE0346034AFB
:109D300042F8243000BF0C37BD4690BD4C040020D3
:109D400080B500AF00220121044801F007FF022284
:109D50000121034801F002FF00BF80BD343D01082E
:109D6000503D010890B595B002AF694B5B6F7B64C5
:109D700000237B6007F108033C220021184607F00E
:109D800099FD3B1D6349184601F034FF97F84730B1
:109D900023F07F03DBB2002B04D03B1D5E49184645
:109DA00001F028FF97F8473003F04003DBB2002BA7
:109DB00004D03B1D5949184601F01CFF97F8473065
:109DC00003F02003DBB2002B04D03B1D544918469E
:109DD00001F010FF97F8473003F01003DBB2002BBF
:109DE00004D03B1D4F49184601F004FF97F8473057
:109DF00003F00803DBB2002B04D03B1D4A49184690
:109E000001F0F8FE97F8473003F00403DBB2002BB3
:109E100004D03B1D4549184601F0ECFE97F8473049
:109E200003F00203DBB2002B04D03B1D404918466F
:109E300001F0E0FE3B1D184601F090FE344B5B6FD5
:109E4000334A43F080735367FFF750FC00F0E2FAA7
:109E500000233B603B4619460920FFF791FC3B6815
:109E6000B3F5803F02D34FF496433B603B68314AE1
:109E700053603B4619460A20FFF782FC3B68072BDC
:109E800004D03B68082B01D008233B603B68DAB262
:109E9000284B1A723B4619460B20FFF771FC3B68B2
:109EA000002B07D03B68012B04D03B68022B01D06C
:109EB00002233B603B68DAB21E4B5A723B4619469E
:109EC0000C20FFF75DFC3B68012B04D03B68022BA4
:109ED00001D001233B603B68DAB2164B9A72154BF6
:109EE00093F830321846134B5A68124B1B7A1C46B3
:109EF000104B5B7A19460F4B9B7A019300912346D6
:109F000001460D4801F02AFE00BF4C37BD4690BD0A
:109F1000003802406C3D0108803D01088C3D01087D
:109F20009C3D0108AC3D0108B83D0108C43D010855
:109F3000D03D010884060020D83D010880B582B0DC
:109F400000AF914B00225A738F4B00229A738E4BB5
:109F50000022DA738C4B00221A748B4B4FF496421A
:109F60005A60894B08221A72874B02225A72864B1A
:109F700001229A72844B854AC3F81822824B844A84
:109F8000C3F81C22804B834AC3F820227E4B824AAE
:109F9000C3F8242200224FF48041804804F006FCDC
:109FA00000224FF400417D4804F000FC0023FB71C7
:109FB00026E0FA7974491346DB009B1A9B000B4498
:109FC00003F51573FA791A70FA796F491346DB00B5
:109FD0009B1A9B000B4403F26E2300221A70FA793D
:109FE0001346DB009B1A9B0003F51473664A134467
:109FF00008336421184601F0ABFCFB790133FB7197
:10A00000FB79072BD5D9604B654AC3F868225E4BB4
:10A010000122A3F86C225C4B614AC3F884225A4B9C
:10A020000222A3F88822584B5D4AC3F8A022564B5F
:10A030001022A3F8A422544B584AC3F8BC22524B16
:10A040004FF48072A3F8C0224F4B544AC3F8D82271
:10A050004D4B8022A3F8DC224B4B504AC3F8F4222C
:10A06000494B4022A3F8F822474B4C4AC3F810232F
:10A07000454B2022A3F81423434B484AC3F82C2312
:10A08000414B1022A3F830230023BB7118E0BA79AA
:10A090003D4913465B0013449B000B4403F54D738D
:10A0A000BA791A70BA79384913465B0013449B0099
:10A0B0000B4403F23E3300221A70BB790133BB71AB
:10A0C000BB79072BE3D9304B354AC3F838232E4BE5
:10A0D0004FF48072A3F83C232B4B314AC3F844233E
:10A0E000294B4FF40072A3F84823274B2C4AC3F89E
:10A0F0005023254B4FF48062A3F85423224B284A67
:10A10000C3F85C23204B4FF40062A3F860231E4B7E
:10A11000234AC3F868231C4B4FF48052A3F86C23E6
:10A12000194B204AC3F87423174B4FF40072A3F85D
:10A130007823154B1B4AC3F88023134B4FF48072CE
:10A14000A3F88423104B154AC3F88C230E4B4FF40D
:10A150008052A3F890230C4B0022C3F8AC230A4B87
:10A16000104AC3F8A423084B4FF48062A3F8A82335
:10A17000054B002283F8AA2364210B4801F0E8FB79
:10A1800000BF0837BD4680BD84060020018E000850
:10A190001D8E0008458E00085D8E000800040240F8
:10A1A0000000024000080240180A002080B582B07A
:10A1B00000AFFFF79BFA03467B717B79002B05D03C
:10A1C0007B791946804801F0C9FC02E07F4801F024
:10A1D000C5FC0023FB80EEE000233B60FB883A4691
:10A1E00011461846FFF7CCFAFB88013B0E2B00F214
:10A1F000DE8001A252F823F035A200084BA200082D
:10A2000061A2000877A200088DA20008A3A200089E
:10A21000B9A20008CFA20008E5A20008FBA200082E
:10A2200015A3000835A300084FA3000875A3000874
:10A2300095A300083B68B3F5803F01D364233B60DE
:10A240003B68634AC2F86032B2E03B68B3F5803FD6
:10A2500001D364233B603B685D4AC2F87C32A7E0CF
:10A260003B68B3F5803F01D364233B603B68584AA9
:10A27000C2F898329CE03B68B3F5803F01D3642379
:10A280003B603B68524AC2F8B43291E03B68B3F598
:10A29000803F01D364233B603B684D4AC2F8D03213
:10A2A00086E03B68B3F5803F01D364233B603B68A5
:10A2B000474AC2F8EC327BE03B68B3F5803F01D3FC
:10A2C00064233B603B68424AC2F8083370E03B6855
:10A2D000B3F5803F01D364233B603B683C4AC2F83E
:10A2E000243365E03B68B3F5803F02D34FF49643D7
:10A2F0003B603B68364A53605AE03B68072B04D00A
:10A300003B68082B01D008233B603B68DAB2304B36
:10A310001A724DE03B68002B07D03B68012B04D03C
:10A320003B68022B01D002233B603B68DAB2284B2A
:10A330005A723DE03B68012B04D03B68022B01D0F0
:10A3400001233B603B68DAB2214B9A7230E03B68F4
:10A35000002B04D03B68012B01D001233B603B68FC
:10A36000002B03D01B4801F0ECFC21E0194801F060
:10A3700007FD1DE03B68B3F57A7F03D33B68B3F577
:10A38000803F02D34FF47A733B603B68104AC2F8B7
:10A3900048320DE03B68002B04D03B68012B01D014
:10A3A00000233B603B68DAB20B4B1A7000E000BF41
:10A3B000FB880133FB80FB880F2B7FF60DAF00BFBE
:10A3C00000BF0837BD4680BD143E01083C3E010871
:10A3D00084060020C4080020340A002080B500AFA5
:10A3E000FFF7B6FA00BF80BD80B400AFBFF34F8F58
:10A3F00000BF064BDB6803F4E0620449044B1343DF
:10A40000CB60BFF34F8F00BF00BFFDE700ED00E062
:10A410000400FA0580B582B000AF00237B6003F032
:10A420005DFB02467B68934253D000233B704FF4A0
:10A4300000712A4804F0A2F9034603F00103DAB2DE
:10A440003B7862F300033B700821244804F096F93E
:10A45000034603F00103DAB23B7862F341033B7039
:10A460004FF400411E4804F089F9034603F001034C
:10A47000DAB23B7862F382033B700421174804F0A0
:10A480007DF9034603F00103DAB23B7862F3C303BC
:10A490003B70144B93F830223B789A4219D03B78AA
:10A4A000002B16D00F4B93F830321A460E490F4846
:10A4B00001F0A0FB3A780B4B83F83022094B93F85C
:10A4C00030321A460A49094801F094FB074801F066
:10A4D00045FB00BF0837BD4680BD00BF00040240F9
:10A4E00000000240840600205C3E0108380A00207B
:10A4F000803E010880B500AF124BDB7A002B1ED0E6
:10A50000104B0022DA720F4802F0ECFE0D4B5B6834
:10A5100019460920FFF74EF90A4B1B7A19460A2003
:10A52000FFF748F9074B5B7A19460B20FFF742F912
:10A53000044B9B7A19460C20FFF73CF900E000BF62
:10A5400080BD00BF8406002080B582B000AF1B4BE9
:10A5500093F84032002B2DD0194801F022FC184806
:10A5600001F053FC0346002B25D0154801F05EFC9A
:10A570000023FB711AE0FA79104913465B0013447B
:10A580009B000B4403F54E731868FA790B49134688
:10A590005B0013449B000B4403F54F731B880022A0
:10A5A000194604F003F9FB790133FB71FB79072BA2
:10A5B000E1D900E000BF0837BD4680BD8406002019
:10A5C000C408002080B584B000AF0023BB60002326
:10A5D000FB710023FB7348E0284800F09DF9024618
:10A5E0000B461346BB60FA7B25491346DB009B1ADA
:10A5F0009B000B4403F51A731868FA7B2049134635
:10A60000DB009B1A9B000B4403F51B731B88194648
:10A6100004F0B4F80346FB71FA7B1346DB009B1A87
:10A620009B0003F51473164A13440833FA79B9688A
:10A63000184601F0B2F90346BB71F97BFA7B10486A
:10A640000B46DB005B1A9B00034403F51973187873
:10A650000B491346DB009B1A9B000B4403F26E234D
:10A6600002461A70FB7B0133FB73FB7B072BB3D9CC
:10A6700000BF00BF1037BD4680BD00BFC00C00202A
:10A680008406002090B583B000AF0023FB7160E02A
:10A69000FA79344913465B0013449B000B4403F5DD
:10A6A0004E731868FA792F4913465B0013449B00D8
:10A6B0000B4403F54F731B88FC79194604F05EF8D0
:10A6C00003461946274A23465B0023449B00134454
:10A6D00003F23E330A461A70FA79224913465B00A8
:10A6E00013449B000B4403F23E331978FA791D485A
:10A6F00013465B0013449B00034403F23F331B7873
:10A70000994223D0F979FA7916480B465B000B443D
:10A710009B00034403F23E331878124913465B0052
:10A7200013449B000B4403F23F3302461A70F9793D
:10A73000FA790C4813465B0013449B00034403F270
:10A740003E331B781A46084801F008FAFB790133BA
:10A75000FB71FB79072B9BD900BF00BF0C37BD46AF
:10A7600090BD00BF840600208C3E010880B582B0F9
:10A7700000AF214800F0D0F802460B4613467B603C
:10A780004FF480611D4803F0F9FF0346FB70FB782E
:10A790001A4679681A4801F000F91A4B93F8A02379
:10A7A000184B83F8AA23174B93F8AA33002B19D020
:10A7B00003F094F90246144B1B68D31A42F20F724D
:10A7C000934214D9114801F0C9F9FFF707FE104868
:10A7D00001F0C4F9012003F08DF90E4801F0BEF933
:10A7E000FFF702FE03F07AF90346074A136000BF41
:10A7F0000837BD4680BD00BFC00C002000080240E5
:10A80000180A00208406002060040020A03E0108F1
:10A81000B83E0108D03E010880B52DED028B82B014
:10A8200000AF78603960254A3B68136004F05EF938
:10A830000346234A1360214B1B685B6807EE903A7E
:10A84000F8EE677AB7EE007A77EE877A9FED1D7A99
:10A8500027EE878A04F04AF907EE900AF8EE677A45
:10A8600088EE277A17EE100AFDF7A6FD02460B4682
:10A870001549C1E9002315494FF000024FF00003CC
:10A88000C1E9002379684FF000024FF00003C1E9ED
:10A8900002237B6800221A617B6800221A707B68A1
:10A8A00000225A617B680022DA617B6800229A618B
:10A8B00000BF0837BD46BDEC028B80BD640400209C
:10A8C00068040020002474497004002078040020EB
:10A8D00080B582B000AF78607B681B78012B04D113
:10A8E000044B1B68184604F01FFE00BF0837BD4626
:10A8F00080BD00BF6404002080B483B000AF7860E6
:10A900000B46FB707B68FA781A7000BF0C37BD46A7
:10A910005DF8047B704700002DE9B04382B000AFC2
:10A9200078607B681B78002B12D103F0D7F80346C0
:10A930004FF47A7202FB03F31846FDF71BFD024643
:10A940000B4610461946FEF79FF802460B461EE0DE
:10A95000154B1B681B685B6A00221C461546134B8F
:10A96000D3E9002314EB020845EB030940464946AE
:10A97000FDF744FD0E4BD3E90023FDF775FD0246BC
:10A980000B4610461946FEF77FF802460B467968DB
:10A99000C1E902237B68D3E9022310461946083730
:10A9A000BD46BDE8B08300BF6404002078040020E9
:10A9B000700400202DE9B04F8AB000AF7862786A49
:10A9C000FFF7AAFF7B6AD3E902013A4A4FF000037E
:10A9D000FEF742F802460B467B6A5A617B6AD3E96E
:10A9E0000201C7E900017B6A5B6900229A4693462F
:10A9F00052465B464FF000004FF00001590141EA1A
:10AA0000D261500102460B46B2EB0A0463EB0B0520
:10AA10004FF000024FF000036B0243EAD45362028E
:10AA200014461D4614EB0A0845EB0B094FF00002D3
:10AA30004FF000034FEA891343EA98634FEA881204
:10AA4000B2EB0801B96063EB0903FB60D7E90212BE
:10AA50000B4613EB0A03BB61134643EB0B03FB618D
:10AA6000D7E900010346D7E9064522469B1A3B6118
:10AA70000B462A4663EB02037B614FF47A724FF078
:10AA80000003D7E90401FDF7E7FF02460B467B6AA6
:10AA90009A617B6AD3E902014FF47A724FF00003A6
:10AAA000FDF7DAFF7B6ADA6100BF2837BD46BDE8F3
:10AAB000B08F00BF40420F002DE9B00383B000AF5C
:10AAC000786079680969481C796808610E490968E5
:10AAD000C9680020884681467968096900200C46CB
:10AAE000054604FB09F008FB05F10144A8FB04231B
:10AAF00019440B460549C1E9002300BF0C37BD4688
:10AB0000BDE8B003704700BF640400207804002053
:10AB100080B582B000AF7860391D4FF0FF3301225D
:10AB2000034805F081F97B6818460837BD4680BDAB
:10AB3000F405002080B500AF02F06AFF00F02EF8A7
:10AB400000F066FA00F0B4F800F000F900F04CF9FB
:10AB500000F0CEF900F006FA00F02EFA00F092F9BB
:10AB600000F08CF8FEF738FF07E002F0B7FF03466D
:10AB7000084A1360084803F08EFE02F0AFFF024659
:10AB8000044B1B68D31AB3F57A7FEED2FEF79EFF13
:10AB9000EAE700BFE00C00208004002080B594B0FC
:10ABA00000AF07F11C0334220021184606F082FE94
:10ABB00007F1080300221A605A609A60DA601A618D
:10ABC00000237B602B4B1B6C2A4A43F08053136499
:10ABD000284B1B6C03F080537B607B6800233B6039
:10ABE000254B1B6823F44043234A43F480431360FE
:10ABF000214B1B6803F440433B603B680A23FB6125
:10AC00000123BB621023FB6201233B6302237B63AE
:10AC10000023BB630823FB6354233B6402237B6450
:10AC20000723BB640223FB6407F11C03184604F0EE
:10AC30008DF90346002B01D000F0FCFA0F23BB6016
:10AC40000223FB6000233B614FF480537B614FF490
:10AC50008053BB6107F108030221184603F02CFE64
:10AC60000346002B01D000F0E5FA00BF5037BD4687
:10AC700080BD00BF003802400070004080B500AFCA
:10AC8000094B0A4A1A60084B04225A60064B40F6E8
:10AC9000FF729A60044803F0BCFD0346002B01D00C
:10ACA00000F0C8FA00BF80BD8004002000300040E2
:10ACB00080B586B000AF07F1080300221A605A6021
:10ACC0009A60DA603B4600221A605A601D4B1E4AA9
:10ACD0001A601C4B53225A601A4B00229A60194B7F
:10ACE00040F2CF72DA60174B00221A61154B002236
:10ACF0009A61144804F0C8FB0346002B01D000F011
:10AD000099FA4FF48053BB6007F1080319460D48C8
:10AD100004F06AFD0346002B01D000F08BFA1023EB
:10AD20003B6000237B603B461946064804F09CFFCD
:10AD30000346002B01D000F07DFA00BF1837BD4656
:10AD400080BD00BF8C0400200004004080B586B0A8
:10AD500000AF07F1080300221A605A609A60DA60B7
:10AD60003B4600221A605A601D4B1E4A1A601C4B5B
:10AD700054225A601A4B00229A60194B40F21B620F
:10AD8000DA60174B00221A61154B00229A611448B1
:10AD900004F07AFB0346002B01D000F04BFA4FF48D
:10ADA0008053BB6007F1080319460D4804F01CFDF1
:10ADB0000346002B01D000F03DFA00233B60002346
:10ADC0007B603B461946064804F04EFF0346002BC5
:10ADD00001D000F02FFA00BF1837BD4680BD00BF7C
:10ADE000D40400200008004080B586B000AF07F111
:10ADF000080300221A605A609A60DA603B4600221B
:10AE00001A605A601D4B1E4A1A601C4B54225A602D
:10AE10001A4B00229A60194B40F63F62DA60174BDA
:10AE200000221A61154B00229A61144804F02CFB91
:10AE30000346002B01D000F0FDF94FF48053BB60B6
:10AE400007F1080319460D4804F0CEFC0346002B19
:10AE500001D000F0EFF900233B6000237B603B460C
:10AE60001946064804F000FF0346002B01D000F00D
:10AE7000E1F900BF1837BD4680BD00BF1C050020AA
:10AE8000000C004080B582B000AF3B4600221A6043
:10AE90005A60154B154A1A60134B53225A60124BD5
:10AEA00000229A60104B4FF6FF72DA600E4B0022C0
:10AEB0009A610D4804F0E8FA0346002B01D000F037
:10AEC000B9F900233B6000237B603B4619460648E6
:10AED00004F0CAFE0346002B01D000F0ABF900BF1E
:10AEE0000837BD4680BD00BF64050020001000404B
:10AEF00080B584B000AF3B4600221A605A609A6069
:10AF0000DA60164B164A1A60144B53225A60134BE0
:10AF100000229A60114B4FF6FF72DA600F4B00224D
:10AF20001A610E4B80229A610C4804F0ADFA034678
:10AF3000002B01D000F07EF94FF480533B603B467C
:10AF40001946064804F050FC0346002B01D000F0DF
:10AF500071F900BF1037BD4680BD00BFAC050020B1
:10AF60000040014080B500AF104B114A1A600F4BF2
:10AF7000104A5A600D4B00229A600C4B0022DA6096
:10AF80000A4B00221A61094B0C225A61074B00221E
:10AF90009A61064B0022DA61044804F0F5FE03468C
:10AFA000002B01D000F046F900BF80BDF405002061
:10AFB0000044004000CA080080B500AF124B134A9D
:10AFC0001A60114B4FF496425A600F4B4FF4805267
:10AFD0009A600D4B0022DA600B4B4FF480621A61CD
:10AFE000094B0C225A61084B00229A61064B4FF420
:10AFF0000042DA61044804F0C7FE0346002B01D08A
:10B0000000F018F900BF80BD3C060020001401408C
:10B0100080B58AB000AF07F1140300221A605A60AD
:10B020009A60DA601A6100233B617D4B1B6B7C4A9E
:10B0300043F0800313637A4B1B6B03F080033B6187
:10B040003B690023FB60764B1B6B754A43F00103A1
:10B050001363734B1B6B03F00103FB60FB6800235E
:10B06000BB606F4B1B6B6E4A43F0020313636C4B68
:10B070001B6B03F00203BB60BB6800237B60684B63
:10B080001B6B674A43F004031363654B1B6B03F0B0
:10B0900004037B607B6800233B60614B1B6B604A51
:10B0A00043F0080313635E4B1B6B03F008033B6024
:10B0B0003B6800224FF450415A4803F077FB0022CE
:10B0C0004FF4D851584803F071FB00224FF4F85167
:10B0D000564803F06BFB00220421554803F066FB41
:10B0E00048F213037B610023BB610223FB6107F17C
:10B0F000140319464D4803F0ADF94FF443737B61D7
:10B100000023BB610223FB6107F114031946454884
:10B1100003F0A0F94FF480537B610123BB6100234E
:10B12000FB6100233B6207F1140319463D4803F01D
:10B1300091F94FF440437B610123BB610223FB6122
:10B1400002233B6207F114031946364803F082F9E3
:10B150004FF440737B610123BB610023FB6100233B
:10B160003B6207F1140319462F4803F073F94FF4BB
:10B1700070637B610123BB610223FB6103233B629C
:10B1800007F114031946294803F064F94FF480537A
:10B190007B610123BB610023FB6100233B6207F15C
:10B1A00014031946214803F055F94FF480637B617D
:10B1B0000023BB610223FB6107F1140319461A48FF
:10B1C00003F048F94FF4C0537B610123BB610223B4
:10B1D000FB6100233B6207F114031946124803F098
:10B1E00039F904237B610123BB610223FB61022344
:10B1F0003B6207F1140319460D4803F02BF9F023C5
:10B200007B610023BB610023FB6107F11403194636
:10B21000044803F01FF900BF2837BD4680BD00BFBA
:10B2200000380240000402400008024000000240D2
:10B23000000C024080B400AF72B600BF00BFFDE753
:10B2400080B582B000AF00237B60164B5B6C154A63
:10B2500043F480435364134B5B6C03F480437B6083
:10B260007B6800233B600F4B1B6C0E4A43F08053FE
:10B2700013640C4B1B6C03F080533B603B6807204E
:10B2800002F02CFD012200216FF0040002F031FDDC
:10B29000042200216FF0030002F02BFD00BF0837ED
:10B2A000BD4680BD0038024080B588B000AF7860F0
:10B2B0007B681B683E4A93420ED10023FB613D4BE5
:10B2C0001B6C3C4A43F0020313643A4B1B6C03F0C3
:10B2D0000203FB61FB6966E07B681B68364A9342A8
:10B2E00016D10023BB61334B1B6C324A43F004037D
:10B2F0001364304B1B6C03F00403BB61BB69012278
:10B3000000211E2002F0F5FC1E2002F00EFD4AE096
:10B310007B681B68294A934216D100237B61254B29
:10B320001B6C244A43F008031364224B1B6C03F08C
:10B3300008037B617B6901220021322002F0D9FCE5
:10B34000322002F0F2FC2EE07B681B681C4A93421C
:10B350000ED100233B61174B1B6C164A43F01003C0
:10B360001364144B1B6C03F010033B613B691AE040
:10B370007B681B68134A934215D10023FB600D4B79
:10B380005B6C0C4A43F4803353640A4B5B6C03F4EC
:10B390008033FB60FB6805220021182002F0A9FC25
:10B3A000182002F0C2FC00BF2037BD4680BD00BFA0
:10B3B000000400400038024000080040000C00403B
:10B3C000001000400040014080B58CB000AF7860B4
:10B3D00007F11C0300221A605A609A60DA601A6151
:10B3E0007B681B683A4A934234D10023BB61394BD6
:10B3F0001B6C384A43F400331364364B1B6C03F464
:10B400000033BB61BB6900237B61324B1B6B314A4C
:10B4100043F0010313632F4B1B6B03F001037B61AC
:10B420007B690C23FB6102233B6200237B620023C8
:10B43000BB620723FB6207F11C031946264803F091
:10B4400009F804220021262002F053FC262002F0F5
:10B450006CFC38E07B681B68204A934233D10023A0
:10B460003B611C4B5B6C1B4A43F020035364194B3C
:10B470005B6C03F020033B613B690023FB60154BD1
:10B480001B6B144A43F004031363124B1B6B03F052
:10B490000403FB60FB68C023FB6102233B620023C3
:10B4A0007B620323BB620823FB6207F11C0319467E
:10B4B0000B4802F0CFFF00220021472002F019FCC8
:10B4C000472002F032FC00BF3037BD4680BD00BFD0
:10B4D00000440040003802400000024000140140D7
:10B4E0000008024080B400AF00BFFDE780B500AFA8
:10B4F000024800F033FB00BFFDE700BFE83E010853
:10B5000080B500AF024800F029FB00BFFDE700BF97
:10B51000083F010880B500AF024800F01FFB00BFE4
:10B52000FDE700BF303F010880B500AF024800F0E2
:10B5300015FB00BFFDE700BF503F010880B400AF1E
:10B5400000BFBD465DF8047B704780B400AF00BF0C
:10B55000BD465DF8047B704780B400AF00BFBD46B8
:10B560005DF8047B704780B500AF02F0A3FA00BF1E
:10B5700080BD000080B500AF0348FFF79DFA034887
:10B5800004F042F800BF80BDC00C0020AC050020D4
:10B5900080B500AF0449054802F0C8F8044804F03B
:10B5A00033F800BF80BD00BFB4080020840600202F
:10B5B000D404002080B500AF024804F0C1FC00BFF5
:10B5C00080BD00BFF405002080B500AF034802F045
:10B5D00055F8034804F018F800BF80BD8406002029
:10B5E0001C05002080B500AF034801F0C3FF0348ED
:10B5F00004F0A6FC00BF80BD840600203C060020AD
:10B6000080B592B000AF78607B681B685C4A93425B
:10B6100040F0B2800023FB6007F110032E220021CE
:10B62000184606F047F9002387F8473097F8473067
:10B6300007F10C0213445349184606F0B7F80346C5
:10B64000DAB297F84730134487F847307B685B6C71
:10B6500003F00103002B0FD097F8473007F10C02DD
:10B6600013444949184606F0A1F80346DAB297F8A0
:10B670004730134487F847307B685B6C03F0020364
:10B68000002B0FD097F8473007F10C0213443F49C5
:10B69000184606F08BF80346DAB297F847301344A1
:10B6A00087F847307B685B6C03F00403002B0FD0F6
:10B6B00097F8473007F10C0213443549184606F055
:10B6C00075F80346DAB297F84730134487F84730E5
:10B6D0007B685B6C03F00803002B0FD097F84730B2
:10B6E00007F10C0213442B49184606F05FF8034695
:10B6F000DAB297F84730134487F847307B685B6CC1
:10B7000003F01003002B0FD097F8473007F10C021D
:10B7100013442149184606F049F80346DAB297F86F
:10B720004730134487F8473097F8473007F10C0249
:10B7300013441A49184606F039F80346DAB297F866
:10B740004730134487F8473007F10C03184600F0E0
:10B75000A7F900233B647B681B681B683B647B681C
:10B760001B685B683B643B6C7B681B68DA687B68C2
:10B770001B6842F02002DA6000BF4837BD4680BD3A
:10B7800000140140743F0108803F0108883F010810
:10B79000903F0108983F0108A03F0108A83F010819
:10B7A00080B400AF01231846BD465DF8047B7047A6
:10B7B00080B582B000AF7860396006F0DDF80346EE
:10B7C00016221A604FF0FF3318460837BD4680BD79
:10B7D00080B582B000AF78604FF0FF317868FFF736
:10B7E000E7FF00BFFDE780B586B000AFF860B96045
:10B7F0007A6000237B610AE0AFF300800146BB68FA
:10B800005A1CBA60CAB21A707B6901337B617A69CB
:10B810007B689A42F0DB7B6818461837BD4680BDCE
:10B8200080B586B000AFF860B9607A6000237B61B4
:10B8300009E0BB685A1CBA601B781846FFF768F924
:10B840007B6901337B617A697B689A42F1DB7B68B3
:10B8500018461837BD4680BD80B483B000AF78600D
:10B860004FF0FF3318460C37BD465DF8047B704738
:10B8700080B483B000AF786039603B684FF4005209
:10B880005A60002318460C37BD465DF8047B7047AC
:10B8900080B483B000AF7860012318460C37BD46F2
:10B8A0005DF8047B704780B485B000AFF860B96084
:10B8B0007A60002318461437BD465DF8047B704754
:10B8C00080B586B000AF7860144A154BD31A7B61FF
:10B8D0007B693B61134B1B68002B02D1114B124A51
:10B8E0001A60104B1A687B6813443A699A4207D26F
:10B8F00006F042F803460C221A604FF0FF3309E0CD
:10B90000084B1B68FB60074B1A687B681344054AA9
:10B910001360FB6818461837BD4680BD0000022042
:10B9200000040000E40C0020980E002080B400AF5A
:10B93000064BD3F88830054A43F47003C2F88830C8
:10B9400000BFBD465DF8047B704700BF00ED00E01E
:10B9500080B582B000AF78603960786800F007F891
:10B960007B683A689A6000BF0837BD4680BD80B4E6
:10B9700083B000AF78607B6800225A737B68002236
:10B980001A737B6800225A607B6800221A6000BF2D
:10B990000C37BD465DF8047B704780B487B000AFBC
:10B9A000F860B9601346FB710023FB75FB681B7BD5
:10B9B000FA799A4201D1FB7D22E0FB68BA681A60ED
:10B9C000FB681A68FB685B68D21AFB689B689A423E
:10B9D00015D3FB68FA791A73FB681A7BFB685B7BEB
:10B9E0009A4206D0FB681A7BFB685A730123FB75E9
:10B9F00001E00023FB75FB681A68FB685A60FB7D59
:10BA000018461C37BD465DF8047B704780B582B090
:10BA100000AF78603960194A7B681360184A3B6848
:10BA20001360174B1B6800225A80154B1B680022BD
:10BA300083F88422124B1B68002283F88522104B66
:10BA40001B6804334FF400720021184605F032FFE2
:10BA50000B4B1B6803F5017380220021184605F08B
:10BA600029FF7B681B68DA687B681B6842F020024C
:10BA7000DA6000BF0837BD4680BD00BFE80C00207B
:10BA8000EC0C002080B400AF044B1B6801221A703C
:10BA900000BFBD465DF8047B704700BFEC0C002082
:10BAA000B0B584B000AF7860124B1B681B78012BD7
:10BAB0001CD17868FCF714FB0346FB60FB68002B85
:10BAC00014D00D4B1C68FB689DB2FB681BB2184676
:10BAD00000F0EAF803462A467968204604F0A4F903
:10BAE000FB681A460021786805F0E4FE00BF1037B5
:10BAF000BD46B0BDEC0C0020E80C00200FB480B5B2
:10BB000082B000AF144B1B681B78012B01D00023BF
:10BB10001AE007F114033B600F4B1B6804333A68CB
:10BB20003969184605F0BCFE78607B68002B0ADD99
:10BB3000094B1B687A6892B25A80074B1B68043322
:10BB40001846FFF7ADFF7B6818460837BD46BDE8CD
:10BB5000804004B0704700BFEC0C00200FB480B5EB
:10BB600092B002AF1F4B1B681B78012B01D0002342
:10BB700030E007F14C03BB631A4B1B680433BA6B0C
:10BB8000B96C184605F08CFEF863FB6B002B20DDCA
:10BB9000144B1B68FA6B92B25A801348FEF70AFFE7
:10BBA000114B5A69104B99690F4BDB69381D009393
:10BBB0000B460E4905F0FAFD3B1D1846FFF770FFD6
:10BBC000084B1B6804331846FFF76AFF0848FFF765
:10BBD00067FFFB6B18464037BD46BDE8804004B0A8
:10BBE000704700BFEC0C0020C00C0020AC3F0108E7
:10BBF000C03F01080EB480B5ADF5057D00AF07F577
:10BC00000473A3F503731860264B1B681B78012B84
:10BC100001D000233DE007F50873C7F8083207F1AB
:10BC20000803D7F80822D7F81C12184605F038FE8A
:10BC3000C7F80C0207F50473A3F503731868FCF743
:10BC40004FFA034699B2D7F80C329AB2154B1B68DB
:10BC50000A4492B25A80D7F80C32002B0FDD114BF8
:10BC60001B685B88B3F5007F09D807F1080207F568
:10BC70000473A3F503731146186805F023FED7F883
:10BC80000C32002B03DD074B1B685B8801E0D7F803
:10BC90000C32184607F50577BD46BDE8804003B075
:10BCA000704700BFEC0C002080B582B000AF0346A7
:10BCB000FB80B7F9063007EE903AF8EEE77A9FED91
:10BCC0000D7A67EE877A17EE900AFCF775FB02464D
:10BCD0000B4643EC102B07F0C7FE53EC102B10461D
:10BCE0001946FCF799FE03469BB218460837BD4635
:10BCF00080BD00BF58C7B13D80B584B000AFF860CB
:10BD0000B9607A60FB68002B17D07B68002B14D0D9
:10BD1000FB6800221A707B6898470246FB685A60ED
:10BD2000FB68BA689A60FB6800221A73FB680022FD
:10BD30005A73FB687A681A6100E000BF1037BD468D
:10BD400080BD80B582B000AF78607B68002B13D0D7
:10BD50007B681B69002B0FD07B6801221A707B68FF
:10BD600000221A737B6800225A737B681B6998470C
:10BD700002467B685A6000E000BF0837BD4680BDC0
:10BD800080B483B000AF78607B68002B03D07B6801
:10BD900000221A7000E000BF0C37BD465DF8047B3E
:10BDA000704780B584B000AF78607B68002B28D0E6
:10BDB0007B681B78002B24D07B681B69002B20D06C
:10BDC0007B681B7B002B1CD17B681B699847B86084
:10BDD0007B685B68BA689A4205D37B685B68BA681F
:10BDE000D31AFB6004E07B685B68BA68D31AFB6017
:10BDF0007B689B68FA689A4204D37B6801221A73B5
:10BE000000E000BF1037BD4680BD80B483B000AFF6
:10BE100078607B68002B01D1002301E07B681B7BED
:10BE200018460C37BD465DF8047B704780B582B07C
:10BE300000AF78607B68002B10D07B681B69002BFB
:10BE40000CD07B681B69984702467B685A607B6808
:10BE500000221A737B6801225A7300E000BF083782
:10BE6000BD4680BD80B485B000AF78600B467B8056
:10BE7000FF23FB73FF23BB7314E07B685A1C7A60BB
:10BE80001B78DAB2BB7B5340DBB2BB600F4ABB68A6
:10BE900013441A78FB7B5340BB730D4ABB681344B1
:10BEA0001B78FB737B885A1E7A80002BE5D1FB7BC5
:10BEB0001B021AB2BB7B1BB213431BB29BB21846C8
:10BEC0001437BD465DF8047B704700BF4400002076
:10BED0004401002080B483B000AF78600B46FB7053
:10BEE000054A7B681360044AFB78137200BF0C3765
:10BEF000BD465DF8047B7047F00C002080B483B031
:10BF000000AF7860044A7B68536000BF0C37BD46C1
:10BF10005DF8047B704700BFF00C002080B400AFD8
:10BF2000034B5B7A1846BD465DF8047B704700BF43
:10BF3000F00C002080B584B000AF0346FB710123F4
:10BF4000FB73354B00225A72FB79013B162B59D8F3
:10BF500001A252F823F000BFB5BF0008BFBF000820
:10BF6000C9BF0008D3BF0008DDBF0008E7BF000855
:10BF70000BC0000805C0000805C0000805C0000887
:10BF800005C0000805C0000805C0000805C000087D
:10BF9000F1BF0008FBBF000805C0000805C000088D
:10BFA00005C0000805C0000805C000080BC0000857
:10BFB0000BC0000800F050FB0346FB7326E000F0C6
:10BFC000D9FB0346FB7321E000F0D0FD0346FB7371
:10BFD0001CE000F03AFD0346FB7317E000F05AFC4A
:10BFE0000346FB7312E000F059FE0346FB730DE0BD
:10BFF00000F082FC0346FB7308E000F085FE034678
:10C00000FB7303E00123FB7300E000BFFB7B1846DA
:10C010001037BD4680BD00BFF00C002080B500AFDA
:10C020000B4B1B680A4A127A0021184605F042FCA5
:10C03000074B5B68064A527A0021184605F03AFC25
:10C04000034B00221A72024B00225A7200BF80BDBD
:10C05000F00C002080B483B000AF0346FB710A4BA4
:10C060005A68094B5B7A591CC8B207494872134495
:10C07000FA791A70044B00229A7200BF0C37BD4641
:10C080005DF8047B704700BFF00C002080B500AF66
:10C0900000F0F2F903461846FFF7DCFF00F0F8F96C
:10C0A00003461846FFF7D6FF00BF80BD80B582B0BB
:10C0B00000AF104B9B7A002B15D10E4B5B680D4ADD
:10C0C000527A11461846FFF7CDFE0346FB80FB88E7
:10C0D000DBB21846FFF7BEFFFB881B0A9BB2DBB240
:10C0E0001846FFF7B7FF034B00229A7200BF0837CC
:10C0F000BD4680BDF00C002080B582B000AF034685
:10C10000FB7100F0B9F903461846FFF7A3FF00F0F2
:10C11000BFF90346803BDBB21846FFF79BFFFB7974
:10C120001846FFF797FF00BF0837BD4680BD80B4B3
:10C1300083B000AF0346FB71FB79002B02D0FB7983
:10C14000082B11D9FB790B2B0ED0FB790E2B02D9C2
:10C15000FB79102B08D9FB79152B02D9FB79172B0A
:10C1600002D9FB79422B01D1012300E00023DBB28D
:10C1700018460C37BD465DF8047B704790B583B018
:10C1800000AF042000F0A6F90346DB089BB2DCB246
:10C19000042000F09FF9034603F007039BB2002B35
:10C1A00014BF01230023DBB22344FB71042000F001
:10C1B00091F903461F21184600F096F80346002B1C
:10C1C0001BD0104B1B6806331B78FA799A4214D1A6
:10C1D000022000F069F903461C46042000F07AF9B9
:10C1E00003461A461F21204600F097F80346002B0D
:10C1F00001D0002302E0022300E0032318460C379D
:10C20000BD4690BDF00C0020B0B584B000AF034631
:10C21000FB80042000F05EF90346DBB25B00FB7399
:10C22000042000F057F903461A46FB8803F5C7437C
:10C230003F339BB21946104600F056F80346002BD8
:10C2400020D0134B1B6806331B78FA7B9A4219D116
:10C25000022000F029F903461D46FB8803F5C74379
:10C260003F339CB2042000F035F903461A462146BC
:10C27000284600F052F80346002B01D0002302E0CC
:10C28000022300E0032318461037BD46B0BD00BFAF
:10C29000F00C002090B583B000AF0446084611466C
:10C2A0001A462346FB800346BB800B467B80134621
:10C2B0003B803A887B881146184600F015F8034603
:10C2C000002B0CD07A88B988FB88184600F025F836
:10C2D0000346002B01D0002302E0022300E00323E9
:10C2E00018460C37BD4690BD80B483B000AF0346FE
:10C2F0000A46FB801346BB80FB88002B05D0FA88DA
:10C30000BB889A4201D8012300E00023DBB2184623
:10C310000C37BD465DF8047B704780B485B000AF34
:10C320000346FB800B46BB8013467B80FA887B88E4
:10C330001344FB81FA88BB889A4208D8FB89002BFA
:10C3400005D0FA89BB889A4201D8012300E0002376
:10C35000DBB218461437BD465DF8047B704780B4E5
:10C3600083B000AF0346FB80FB88002B03D0FB8823
:10C37000B3F57F4F01D1012300E00023DBB2184663
:10C380000C37BD465DF8047B704780B483B000AFC6
:10C3900003460A46FB801346BB80FA88BB889A4254
:10C3A00034BF01230023DBB218460C37BD465DF8CD
:10C3B000047B704780B500AF00F09AF8034618463A
:10C3C000FFF7CDFF0346002B0DD000F07BF80346AE
:10C3D0001F211846FFF7D9FF0346002B01D0002389
:10C3E00002E0022300E00323184680BD80B483B03E
:10C3F00000AF0346FB80012318460C37BD465DF8AD
:10C40000047B704780B500AF00F072F80346184611
:10C41000FFF7ECFF0346002B0DD000F053F8034666
:10C420001A211846FFF7B1FF0346002B01D0002365
:10C4300002E0022300E00323184680BD80B483B0ED
:10C4400000AF0346FB710B4B1A68FB7913441B7852
:10C450001B021AB2074B1968FB7901330B441B7896
:10C460001BB213431BB29BB218460C37BD465DF896
:10C47000047B7047F00C002080B400AF034B1B68B6
:10C480001B781846BD465DF8047B7047F00C002011
:10C4900080B400AF034B1B685B781846BD465DF85F
:10C4A000047B7047F00C002080B582B000AF0346DB
:10C4B000FB71FB791846FFF7C1FF034618460837A2
:10C4C000BD4680BD80B500AF0220FFF7B7FF034631
:10C4D000184680BD80B582B000AF0346FB71FB7982
:10C4E0001846FFF7ABFF034618460837BD4680BD28
:10C4F00080B500AF0420FFF7A1FF0346184680BDBA
:10C5000080B483B000AF0346FB71054B1A68FB791A
:10C5100013441B7818460C37BD465DF8047B704702
:10C52000F00C002080B582B000AF0346FB71FB79B0
:10C530001846FFF783FF034618460837BD4680BDFF
:10C5400080B582B000AF03463960FB80054B1B68A5
:10C55000FA88396810469847034618460837BD469A
:10C5600080BD00BF080D002080B586B000AFF86028
:10C57000084611461A460346FB720B463B8113469A
:10C58000FB803B89FB8217E007F11402FB8A11460E
:10C590001846FFF7D5FF0346002B0BD0FA8A3B89DC
:10C5A000D31A5B00FA681344BA8A1A80FB8A0133F3
:10C5B000FB8201E0002304E0FA8AFB889A42E3D977
:10C5C000012318461837BD4680BD000080B584B0F1
:10C5D00000AF78600B467B8013463B807B88FB81F5
:10C5E00019E00023BB81104B1B6807F10C01FA898D
:10C5F000104698470346002B0BD0FA897B88D31A44
:10C600005B007A681344BA891A80FB890133FB8185
:10C6100001E0002304E0FA893B889A42E1D9012332
:10C6200018461037BD4680BD100D002080B582B081
:10C6300000AF03460A46FB801346BB80054B1B68D0
:10C64000B988FA8810469847034618460837BD4609
:10C6500080BD00BF0C0D00202DE9F04784B000AF75
:10C660000220FFF721FF03461E460420FFF732FF9A
:10C6700003461A461F231F213046FFF70BFE0346D1
:10C68000BB73BB7B002B6FD16B469A460420FFF730
:10C6900021FF0346DB089BB2DEB20420FFF71AFF3E
:10C6A000034603F007039BB2002B14BF01230023B2
:10C6B000DBB233447B730220FFF7F6FE03460133FF
:10C6C0007B810420FFF706FF03461A467B8913444B
:10C6D0003B81797B0B46013B7B60CBB200229846C5
:10C6E00091464FF000024FF000034FEAC90343EABE
:10C6F00058734FEAC802CBB200221C4615464FF0D1
:10C7000000024FF00003EB0043EA5473E2000B46D3
:10C710000733DB08DB00ADEB030D6B4600333B60FA
:10C720003B897A89797B386800F026FC0346002B28
:10C7300017D0FFF7ABFC7B7B1846FFF78BFC002381
:10C74000FB7308E0FB7B3A68D35C1846FFF782FC7A
:10C75000FB7B0133FB73FA7B7B7B9A42F2D3FF2393
:10C7600000E00423D54600E0BB7B18461037BD46E9
:10C77000BDE8F0872DE9F04784B000AF0220FFF755
:10C7800093FE03461E460420FFF7A4FE03461A4606
:10C79000082308213046FFF77DFD0346BB73BB7BB2
:10C7A000002B71D16B469A460420FFF793FE034697
:10C7B000DB089BB2DEB20420FFF78CFE034603F0D9
:10C7C00007039BB2002B14BF01230023DBB23344C9
:10C7D0007B730220FFF768FE034603F51C531133F9
:10C7E0007B810420FFF776FE03461A467B891344BB
:10C7F0003B81797B0B46013B7B60CBB200229846A4
:10C8000091464FF000024FF000034FEAC90343EA9C
:10C8100058734FEAC802CBB200221C4615464FF0AF
:10C8200000024FF00003EB0043EA5473E2000B46B2
:10C830000733DB08DB00ADEB030D6B4600333B60D9
:10C840003B897A89797B386800F0EAFA0346002B45
:10C8500017D0FFF71BFC7B7B1846FFF7FBFB002381
:10C86000FB7308E0FB7B3A68D35C1846FFF7F2FBEA
:10C87000FB7B0133FB73FA7B7B7B9A42F2D3FF2372
:10C8800000E00423D54600E0BB7B18461037BD46C8
:10C89000BDE8F08790B583B000AFFFF78BFD03468E
:10C8A000FB71FB79002B1FD1FFF70CFE0346013310
:10C8B0009CB2FFF71DFE03461946204600F02CFBF4
:10C8C0000346002B0ED00B4B5B680A4A1168094ADD
:10C8D000127A184605F07DF8064B1A7A054B5A7203
:10C8E000FF2302E0042300E0FB7918460C37BD4625
:10C8F00090BD00BFF00C002090B587B000AFFFF7EF
:10C900003DFC03467B757B7D002B40F09980022027
:10C91000FFF7CAFD034601337B820420FFF7DAFDEF
:10C9200003461A467B8A13443B820420FFF7D2FD5C
:10C930000346DB089BB2DCB20420FFF7CBFD0346C5
:10C9400003F007039BB2002B14BF01230023DBB2CB
:10C950002344FB730723BB810023FB753AE0BB89AB
:10C96000DAB2FB7D1344DBB21846FFF7C9FD03467C
:10C970007B720023BB7527E0FB7D9BB2DB009AB284
:10C980007B8A13449AB2BB7D9BB21344FB80FA8826
:10C990007B8A9A421BD3FA883B8A9A4217D27A7AC8
:10C9A000BB7D42FA03F39BB203F001039AB2FB880A
:10C9B0001146184600F0B0FA0346002B01D10423BB
:10C9C0003FE0BB7D0133BB75BB7D072BD4D9FB7D1D
:10C9D0000133FB75FA7DFB7B9A42C0D3FF237B8139
:10C9E000FFF754FB0220FFF75FFD03461B0A9BB2D3
:10C9F000DBB21846FFF72EFB0220FFF755FD03467A
:10CA0000DAB27B89DBB21340DBB21846FFF722FBB8
:10CA10000420FFF75FFD03461B0A9BB2DBB21846FA
:10CA2000FFF718FB0420FFF755FD0346DAB27B89B8
:10CA3000DBB21340DBB21846FFF70CFBFF2300E02C
:10CA40007B7D18461C37BD4690BD2DE9F04387B06D
:10CA500000AF0220FFF728FD03461E460420FFF723
:10CA600039FD03461A46012301213046FFF712FC27
:10CA70000346BB75BB7D002B72D16B461E4604205E
:10CA8000FFF728FD03467B75797D0B46013B3B6133
:10CA9000CBB20022984691464FF000024FF00003BF
:10CAA0004FEA091343EA18734FEA0812CBB2002287
:10CAB0001C4615464FF000024FF000032B0143EADD
:10CAC000147322010B465B000733DB08DB00ADEB80
:10CAD000030D6B4601335B085B00FB600220FFF730
:10CAE000E3FC034603F5EA4331337B817B7D9AB255
:10CAF0007B8913449BB2013B3B813B897A89797DD9
:10CB0000F868FFF731FD0346002B26D07B7D5B00E4
:10CB1000FB71FFF7BBFAFB791846FFF79BFA00237E
:10CB2000FB7514E0FA7DFB6833F812301B0A9BB2E8
:10CB3000DBB21846FFF78EFAFA7DFB6833F8123045
:10CB4000DBB21846FFF786FAFB7D0133FB75FA7DF1
:10CB50007B7D9A42E6D3FF2300E00423B54600E044
:10CB6000BB7D18461C37BD46BDE8F0832DE9F04378
:10CB700087B000AF0220FFF797FC03461E46042053
:10CB8000FFF7A8FC03461A461A231A213046FFF77E
:10CB900081FB0346BB75BB7D002B78D16B461E46DF
:10CBA0000420FFF797FC03467B75797D0B46013B1C
:10CBB0003B61CBB20022984691464FF000024FF005
:10CBC00000034FEA091343EA18734FEA0812CBB285
:10CBD00000221C4615464FF000024FF000032B01C7
:10CBE00043EA147322010B465B000733DB08DB00CA
:10CBF000ADEB030D6B4601335B085B00FB6002206D
:10CC0000FFF752FC0346A3F5C7433F3B7B817B7D87
:10CC10009AB27B8913449BB2013B3B813A897B8961
:10CC20001946F868FFF7D2FC0346002B2CD0FF23EF
:10CC3000FB807B7D5B007B71FFF728FA7B791846D0
:10CC4000FFF708FA0023FB7518E0FA7DFB6833F85C
:10CC500012301B0A9BB2DBB21846FFF7FBF9FA7DD4
:10CC6000FB6833F81230DAB2FB88DBB21340DBB278
:10CC70001846FFF7EFF9FB7D0133FB75FA7D7B7DED
:10CC80009A42E2D3FF2300E00423B54600E0BB7DD7
:10CC900018461C37BD46BDE8F083000090B583B050
:10CCA00000AFFFF7AFFB0346FB71FB79002B23D1ED
:10CCB000FFF708FC0346A3F5C7433F3B9CB2FFF7D1
:10CCC00017FC034619462046FFF7B0FC0346012B2C
:10CCD00010D10C4B5B680B4A11680A4A127A18464D
:10CCE00004F077FEFFF7EEFB064B1A7A054B5A72FB
:10CCF000FF2302E0042300E0FB7918460C37BD4611
:10CD000090BD00BFF00C002080B584B000AF49F6A4
:10CD10005B40FFF779FA0346FB72FB7A002B65D183
:10CD20000220FFF7C1FB0346A3F5C7433F3B3B810E
:10CD30000420FFF7CFFB03461A463B8913449BB2FE
:10CD4000013BFB800723FB733B89BB8116E0FB7B28
:10CD50001846FFF7E7FB03467B80FB7B0233FB7340
:10CD60007A88BB8911461846FFF760FC0346002B02
:10CD700001D104233BE0BB890133BB81BA89FB8825
:10CD80009A42E4D9FF23BB80FFF780F90220FFF726
:10CD90008BFB03461B0A9BB2DBB21846FFF75AF91E
:10CDA0000220FFF781FB0346DAB2BB88DBB21340F7
:10CDB000DBB21846FFF74EF90420FFF78BFB034662
:10CDC0001B0A9BB2DBB21846FFF744F90420FFF7B9
:10CDD00081FB0346DAB2BB88DBB21340DBB21846F4
:10CDE000FFF738F9FFF76EFBFF2300E0FB7A1846E8
:10CDF0001037BD4680BD000080B582B000AF03464D
:10CE00003960FB80054B1B68FA88396810469847E3
:10CE1000034618460837BD4680BD00BFFC0C002005
:10CE200080B586B000AFF860084611461A46034642
:10CE3000FB720B463B811346FB8000237B7500236E
:10CE40003B750023FB743B89FB8241E00023BB74EC
:10CE500007F11202FB8A11461846FFF7CDFF034681
:10CE6000002B30D0BB7C012B2BD8BB7C1A46FB7C23
:10CE7000DBB2591CC9B2F97402FA03F35AB23B7D12
:10CE8000DBB25BB213435BB2DBB23B75FB7CDBB264
:10CE9000072B1AD97B7DDBB2FA7A9A420FD97B7DB8
:10CEA000DBB25A1CD2B27A751A46FB6813443A7D3B
:10CEB000D2B21A7000233B750023FB7405E00023F7
:10CEC00026E0002324E0002322E0FB8A0133FB82DA
:10CED000FA8AFB889A42B9D3FB7CDBB2002B16D0CE
:10CEE000FB7CDBB2072B12D87B7DDBB2FA7A9A424D
:10CEF0000BD97B7DDBB25A1CD2B27A751A46FB681D
:10CF000013443A7DD2B21A7001E0002300E00123FD
:10CF100018461837BD4680BD80B582B000AF0346C5
:10CF20000A46FB801346BB80084B1B68FA88D0B2C8
:10CF3000BA88002A14BF01220022D2B211469847B3
:10CF4000034618460837BD4680BD00BF000D0020CF
:10CF500080B582B000AF03463960FB80054B1B688B
:10CF6000FA88D2B2396810469847034618460837FF
:10CF7000BD4680BD040D002080B586B000AFF860CE
:10CF8000084611461A460346FB720B463B81134680
:10CF9000FB800023FB750023BB7500237B753B8959
:10CFA0007B8238E000237B7407F111027B8A1146F3
:10CFB0001846FFF7CDFF0346002B27D07B7C012BC3
:10CFC00022D87B7C1A467B7D591C797502FA03F3C3
:10CFD0005AB297F9163013435BB2BB757B7D072BB2
:10CFE00016D9FA7DFB7A9A420CD2FB7D5A1CFA754F
:10CFF0001A46FB681344BA7D1A700023BB750023E0
:10D000007B7505E0002320E000231EE000231CE0E8
:10D010007B8A01337B827A8AFB889A42C2D37B7DEA
:10D02000002B11D07B7D072B0ED8FA7DFB7A9A421C
:10D0300008D2FB7D5A1CFA751A46FB681344BA7D68
:10D040001A7001E0002300E0012318461837BD469E
:10D0500080BD000080B483B000AF7860044A7B6874
:10D06000136000BF0C37BD465DF8047B704700BFFE
:10D07000FC0C002080B483B000AF78603960064AB1
:10D080007B681360054A3B68136000BF0C37BD46E0
:10D090005DF8047B704700BF000D0020040D0020E8
:10D0A00080B483B000AF7860044A7B68136000BF2F
:10D0B0000C37BD465DF8047B704700BF080D0020AB
:10D0C00080B483B000AF78603960064A7B68136033
:10D0D000054A3B68136000BF0C37BD465DF8047B12
:10D0E000704700BF0C0D0020100D002080B483B0ED
:10D0F00000AF78600B46FB70064A7B681360054BF7
:10D100001B68FA781A7000BF0C37BD465DF8047BC7
:10D11000704700BF140D002080B400AF034B1B68A4
:10D120001846BD465DF8047B704700BF140D002013
:10D1300080B584B000AF78607B685A687B681B7BE1
:10D1400019461046FEF7C6FE7B689B681846FEF738
:10D15000D5FE0023FB73FFF79BF90346BB73BB7B34
:10D160001846FEF7E4FF0346002B06D0BB7B1846AB
:10D17000FEF7E0FE0346FB7301E00123FB73FB7B3C
:10D18000002B2AD0FB7BFF2B07D0FB7BFE2B04D090
:10D19000FB7B1846FEF7B0FF04E0FB7BFE2B01D1C2
:10D1A00000231BE07B685B681B78002B15D0FEF723
:10D1B0007DFFFEF7B3FE03461A467B685A73BB7BBE
:10D1C000052B02D0BB7B062B05D17B685B7B023B2A
:10D1D000DAB27B685A73012300E000231846103747
:10D1E000BD4680BD80B584B000AFF860B9607A609C
:10D1F0003B602A4AFB681360294ABB681360294ACE
:10D200007B681360284A3B681360264B1B681B68C9
:10D21000184600F04BF8244B1B681B68184600F0BA
:10D2200045F8FB6800221A741E4B1B681B6800221D
:10D230005A621C4B1B681B681A681A4B1B681B68D8
:10D2400022F001021A60174B1B681B681A69154B04
:10D250001B681B6822F001021A61134B1B681B68D4
:10D2600000225A62104B1B681B681A680E4B1B6821
:10D270001B6822F001021A600B4B1B681B681A69BD
:10D28000094B1B681B6822F001021A61FB68D3F886
:10D290002432984700BF1037BD4680BD240D0020C2
:10D2A000180D00201C0D0020200D002080B483B03C
:10D2B00000AF78607B681B6823F001027B681A600E
:10D2C0007B685B6943F001027B685A617B68DB68BD
:10D2D00043F001027B68DA6000BF0C37BD465DF8A1
:10D2E000047B704790B585B000AF78600123FB7375
:10D2F000704B1B681B68DA686E4B1B681B6822F05A
:10D300002002DA606C4B1B681B6800225A626A4B71
:10D310001B681B681A68684B1B681B6822F00102B7
:10D320001A60654B1B681B681A69634B1B681B6896
:10D3300022F001021A61614B1B681B6800225A62CD
:10D340005E4B1B681B681A685C4B1B681B6822F0ED
:10D3500001021A60594B1B681B681A69574B1B68FE
:10D360001B6822F001021A617B685B68B3F5803F9D
:10D370000FD27B685B68002B0BD04E4B1B687A6822
:10D3800052685A607B681B7A072B05D0082B08D09F
:10D390000DE00023FB737EE0464B1B6800229A6081
:10D3A00008E0444B1B684FF480529A6002E000236F
:10D3B000FB7370E07B685B7A022B11D0022B15DCCB
:10D3C000002B02D0012B05D010E03A4B1B68002245
:10D3D0001A610EE0374B1B684FF4C0621A6108E017
:10D3E000344B1B684FF480621A6102E00023FB7328
:10D3F00051E07B689B7A012B02D0022B05D00AE01A
:10D400002C4B1B680022DA6008E02A4B1B684FF4A3
:10D410000052DA6002E00023FB733CE0FB7B012B4F
:10D4200038D1244B1B685B68234A1468B7EE080A9E
:10D43000184600F075FA0346E3601E4B1B685B68F4
:10D440001E4A1468B0EE0C0A184600F069FA03464A
:10D45000E360194B1B68184602F016F80346002BD0
:10D4600002D00023FB7316E0144B1B68184602F031
:10D470000BF80346002B02D00023FB730BE00D4B8F
:10D480001B68184602F080FC0346002B02D00023E4
:10D49000FB7300E000BF074B1B681B68DA68054B95
:10D4A0001B681B6842F02002DA60FB7B18461437C9
:10D4B000BD4690BD180D00201C0D0020200D002041
:10D4C00080B584B000AF78600123FB737B68B3F84C
:10D4D0001432002B42D07B68DB7B002B3BD17B6876
:10D4E0000022A3F8122201224FF400411F4801F04C
:10D4F0005DF97B68D3F8203298477B68D3F81C32FB
:10D500007A6802F211107A68B2F81422114698472C
:10D510000346002B02D00023FB7311E07B6801223D
:10D52000DA73134B1B681B6800225A62104B1B688E
:10D530001B681A680E4B1B681B6842F001021A60D8
:10D540007B68D3F82432984700224FF40041074803
:10D5500001F02CF904E00023FB7301E00023FB73CE
:10D56000FB7B18461037BD4680BD00BF000402405B
:10D57000200D002090B583B000AF78607B68012259
:10D580009A733B4B1B681B6800225A62384B1B681E
:10D590001B681A68364B1B681B6822F001021A6070
:10D5A000334B1B681B681A69314B1B681B6822F0E0
:10D5B00001021A612F4B1B681B6800225A622D4B17
:10D5C0001B681B681A682B4B1B681B6822F0010242
:10D5D0001A60284B1B681B681A69264B1B681B685E
:10D5E00022F001021A617B68B3F81232FF2B12D8C5
:10D5F0007B68D3F818227B68B3F81232591C88B2C2
:10D600007968A1F812021C46904703461A467B68C7
:10D6100023445A7404E07B684FF48072A3F812220A
:10D62000134B1B681B6800225A62114B1B681B6856
:10D630001A680F4B1B681B6842F001021A600D4B01
:10D640001B681B6800225A620A4B1B681B681A6819
:10D65000084B1B681B6842F001021A604FF48041BE
:10D66000054801F0BCF800BF0C37BD4690BD00BFB7
:10D670001C0D0020200D00200004024080B582B067
:10D6800000AF786000224FF48041264801F08EF808
:10D690007B680022DA73244B1B681B681B6903F04C
:10D6A0000103002B3AD0204B1B681B6800225A62F2
:10D6B0001D4B1B681B681A681B4B1B681B6822F0FC
:10D6C00001021A60184B1B681B681A69164B1B680D
:10D6D0001B6822F001021A617B6801225A737B6881
:10D6E000B3F81232042B04D97B68B3F81232FF2B43
:10D6F00007D97B680022A3F812227B6800225A73A4
:10D7000009E0786800F094F87B6800229A737B68DF
:10D710000022A3F812227B6800229A7300BF083708
:10D72000BD4680BD00040240200D002080B584B0BD
:10D7300000AF786039603D4B1B681B681B6903F0C4
:10D740000103002B6DD0394B1B681B6800225A6205
:10D75000364B1B681B681A68344B1B681B6822F029
:10D7600001021A60314B1B681B681A692F4B1B683A
:10D770001B6822F001021A617B6800221A747B6820
:10D78000B3F81232022B4CD97B685A7C3B681B7869
:10D790009A4203D07B685B7C002B42D17B68B3F854
:10D7A0001232013B7A6813445B7C1B021AB27B681D
:10D7B000B3F81232023B79680B445B7C1BB2134313
:10D7C0001BB2FB817B6803F111027B68B3F8123254
:10D7D000023B9BB219461046FEF744FB0346BB8151
:10D7E000FA89BB899A4219D17B6803F111023B681F
:10D7F0005A607B6803F211123B689A607B68B3F849
:10D800001232DAB23B681A737B68B3F81432DAB2B8
:10D810003B685A737B6801221A7402E07B6800221D
:10D820001A7400BF1037BD4680BD00BF1C0D00201C
:10D8300080B584B000AF78607B685B7B002B68D0DC
:10D840007B6800225A737B681B7C002B58D0FFF743
:10D8500063FCF8600023FB727B6803F11102FB6834
:10D860005A607B6803F21112FB689A607B68B3F818
:10D870001232DAB2FB681A737B68B3F81432DAB288
:10D88000FB685A73F868FFF753FC0346BB72FB68EA
:10D890001B7B1A467B68A3F81222FB685B7B1A4647
:10D8A0007B68A3F81422BB7A002B1AD07868FFF7A4
:10D8B00007FE0346FB72FB7A012B02D01748FEF7E6
:10D8C0004DF97B680022A3F812227B680022A3F89E
:10D8D0001422FB6800221A73FB6800225A73FEF7B9
:10D8E0009DFB7B680022A3F812227B680022A3F82C
:10D8F0001422FB6800221A73FB6800225A7301E0AD
:10D90000FEF78CFB7B680022A3F812227B680022C2
